S01A0000323031375345552D43616D65726144656D6F2E7372656358
S1130000F861FF1FBD5C000099170000655D0000EA
S1130010695D00006D5D0000715D0000000000007E
S1130020000000000000000000000000755D0000FA
S1130030795D0000000000007D5D0000815D00002E
S1130040954B00009F4B0000A94B0000B34B0000F0
S1130050BD4B0000C74B0000D14B0000DB4B000040
S1130060E54B0000EF4B0000F94B0000034C00008F
S11300700D4C0000174C0000214C00002B4C0000DC
S1130080855D0000895D00008D5D0000915D0000CC
S1130090955D0000995D00009D5D0000A15D00007C
S11300A0A55D0000A95D0000AD5D0000B15D00002C
S11300B0B55D0000B95D0000BD5D0000C15D0000DC
S11300C0C55D0000C95D0000CD5D0000D15D00008C
S11300D0D55D0000D95D0000DD5D0000E15D00003C
S11300E0E55D0000E95D0000ED5D0000F15D0000EC
S11300F0F55D000019310000F95D000023310000B6
S1130100FD5D00002D310000015E0000373100006C
S1130110055E000041310000095E00004B31000023
S11301200D5E0000115E0000155E0000195E000007
S11301301D5E0000215E0000E9100000F3100000C5
S1130140FD100000255E0000295E00002D5E000009
S1130150613400006B340000753400007F3400000B
S1130160315E0000355E0000395E00003D5E000037
S1130170415E0000455E0000495E00004D5E0000E7
S1130180515E0000555E0000595E00005D5E000097
S1130190615E00005D5B0000655E000045160000C6
S11301A04F16000059160000631600006D1600007B
S11301B0695E00006D5E0000715E0000755E000007
S11301C0795E00007D5E0000815E0000855E0000B7
S11301D0895E00008D5E0000915E0000955E000067
S11301E0995E0000995E0000995E0000995E00002F
S11301F0995E0000995E0000995E0000995E00001F
S1130200995E0000995E0000995E0000995E00000E
S1130210995E0000995E0000995E0000995E0000FE
S1130400FFFFFFFFFFFFFFFFFFFFFFFFFEFFFFFFF9
S113041030B4DFF8443C0C2404FB00331B681B6835
S1130420DFF8344C0C2505FB004464682343DFF8F3
S1130430284C0C2505FB0044246823600023DFF8C6
S11304401C4C54F820402360DFF8103C53F8203053
S11304505B6D53F00403DFF8044C54F820406365EB
S11304600023DFF8F84B54F8204063600023DFF8E2
S1130470EC4B54F82040E364DFF8E03B53F82030C1
S113048099605FF0FF33DFF8D44B54F82040C4F890
S1130490983030BC7047F1B50C00150000AF042251
S11304A04FF6FF71387810F00700FFF7B1FF05220F
S11304B00021387810F0070000F06AF9E4B2002C4B
S11304C002D0012C29D051E0DFF8900B397811F0DB
S11304D0070150F82100DFF8841B3A7812F0070274
S11304E051F82210D1F8801031F02001C0F88010AA
S11304F0DFF8680B397811F0070150F82100DFF8B4
S11305005C1B3A7812F0070251F82210D1F88010DF
S113051031F01001C0F8801028E0DFF8400B397882
S113052011F0070150F82100DFF8301B3A7812F07F
S1130530070251F82210D1F8801051F02001C0F8C0
S11305408010DFF8180B397811F0070150F82100FA
S1130550DFF8081B3A7812F0070251F82210D1F89C
S1130560801051F01001C0F88010FFE7EDB2002DAB
S113057002D0012D15D029E0DFF8E00A397811F016
S1130580070150F82100DFF8D41A3A7812F0070274
S113059051F82210D1F8801031F00801C0F8801011
S11305A014E0DFF8B80A397811F0070150F8210097
S11305B0DFF8A81A3A7812F0070251F82210D1F89D
S11305C0801051F00801C0F88010FFE700200600F9
S11305D03868C0F38430F6B2C0B2864228D2386894
S11305E0800910F007023868400A10F01F00311823
S11305F0C9B23868C0F3C20000F0B2FD0122386805
S1130600400A10F01F003118C9B23868C0F3C200A4
S113061000F0D7FD01223868400A10F01F0031189D
S1130620C9B23868C0F3C20000F033FE761CCFE7CD
S1130630387810F00700F2BDDFF8A03A53F8203004
S1130640D3F88030C3F380031370DFF8903A53F883
S113065020305B680B8070470021DFF8802A52F855
S11306602020516070470100C9B2002902D0C9B2EC
S1130670012901D1002010E0C9B2022902D0C9B277
S1130680032901D1012008E0C9B2042902D0C9B26A
S1130690052901D1022000E0032070472DE9F84329
S11306A004000D0016001F005FF00008F6B2002ED3
S11306B008D0022E1ED011D3042E33D026D3052EFB
S11306C03CD047E05FF001092800C0B2FFF7CBFF40
S11306D0C0B2C00019FA00F080463BE05FF00209A6
S11306E02800C0B2FFF7BFFFC0B2C00019FA00F083
S11306F080462FE05FF004092800C0B2FFF7B3FF83
S1130700C0B2C00019FA00F0804623E05FF010097F
S11307102800C0B2FFF7A7FFC0B2C00019FA00F06A
S1130720804617E05FF020092800C0B2FFF79BFF66
S1130730C0B2C00019FA00F080460BE05FF0400937
S11307402800C0B2FFF78FFFC0B2C00019FA00F052
S11307508046FFE7FFB2012F0CD1DFF8000950F803
S11307602400406E58EA0000DFF8F01851F8241015
S113077048660BE0DFF8E40850F82400406E30EAE5
S11307800800DFF8D81851F824104866BDE8F18352
S113079070B504000D001600F6B2002E0CD0022E27
S11307A000F0AE8171D3042E00F0C080C0F021812E
S11307B0052E00F02C8287E2DFF8A00850F8240010
S11307C0406D40084000DFF8941851F82410486543
S11307D0DFF8880850F82400D0F880004008400072
S11307E0DFF8781851F82410C1F88000DFF86C089D
S11307F050F82400006830F02000DFF8601851F849
S113080024100860DFF8540850F82400EDB210EB0F
S1130810C500DFF8481851F82410EDB211EBC501FA
S1130820C96851F03001C16000222900C9B220001A
S113083000F04BFA002300222900C9B22000FFF780
S11308402DFF002301222900C9B22000FFF726FF53
S1130850002302222900C9B22000FFF71FFF002352
S113086003222900C9B22000FFF718FF0023042245
S11308702900C9B22000FFF711FF00230522290037
S1130880C9B22000FFF70AFF1EE2DFF8D00750F8D4
S11308902400406D40084000DFF8C01751F82410D0
S11308A04865DFF8B80750F82400D0F88000400805
S11308B04000DFF8A81751F82410C1F88000DFF8D1
S11308C09C0750F82400006850F02000DFF88C17D3
S11308D051F824100860002300222900C9B2200026
S11308E0FFF7DCFE002301222900C9B22000FFF734
S11308F0D5FE002302222900C9B22000FFF7CEFE54
S1130900002303222900C9B22000FFF7C7FE0023F9
S113091004222900C9B22000FFF7C0FE00230522EB
S11309202900C9B22000FFF7B9FECDE1DFF82C079A
S113093050F82400D0F8800040084000DFF81C176D
S113094051F82410C1F88000DFF8100750F8240093
S1130950406D40084000DFF8041751F82410486542
S1130960DFF8F80650F82400006830F02000DFF8C3
S1130970EC1651F824100860DFF8E00650F8240063
S1130980EDB210EBC500DFF8D41651F82410EDB227
S113099011EBC501C96831F03001C16000230022A8
S11309A02900C9B22000FFF779FE002301222900A3
S11309B0C9B22000FFF772FE002302222900C9B247
S11309C02000FFF76BFE002303222900C9B2200098
S11309D0FFF764FE002304222900C9B22000FFF7B8
S11309E05DFE002305222900C9B22000FFF756FE50
S11309F06AE1DFF8680650F82400D0F88000400867
S1130A004000DFF8581651F82410C1F88000DFF8D0
S1130A104C0650F82400006830F02000DFF83C1643
S1130A2051F824100860DFF8340650F82400406DB3
S1130A3050F00400DFF8241651F824104865DFF85C
S1130A401C0650F82400406D50F00100DFF80C162D
S1130A5051F824104865012300222900C9B220005E
S1130A60FFF71CFE012301222900C9B22000FFF771
S1130A7015FE002302222900C9B22000FFF70EFE52
S1130A80002303222900C9B22000FFF707FE012337
S1130A9004222900C9B22000FFF700FE002305222A
S1130AA02900C9B22000FFF7F9FDDFF8B00550F8BE
S1130AB02400EDB210EBC500DFF8A01551F82410A6
S1130AC0EDB211EBC501C96851F03001C1600022DB
S1130AD02900C9B2200000F0F8F80320DFF87C15E3
S1130AE051F824108865DFF8740550F82400806DEF
S1130AF050F08000DFF8641551F824108865E3E0B5
S1130B00DFF8580550F82400D0F880004008400071
S1130B10DFF8481551F82410C1F88000DFF83C05CF
S1130B2050F82400006830F02000DFF8301551F848
S1130B3024100860DFF8240550F82400406D50F0BC
S1130B400400DFF8181551F824104865DFF80C0587
S1130B5050F82400406D50F00100DFF8001551F802
S1130B6024104865012300222900C9B22000FFF7A0
S1130B7095FD002301222900C9B22000FFF78EFD54
S1130B80002302222900C9B22000FFF787FD0023B9
S1130B9003222900C9B22000FFF780FD01230422AB
S1130BA02900C9B22000FFF779FD0023052229009E
S1130BB0C9B22000FFF772FDDFF8A00450F824004A
S1130BC0EDB210EBC500DFF8941451F82410EDB227
S1130BD011EBC501C96851F03001C1600022290040
S1130BE0C9B2200000F071F80320DFF8701451F846
S1130BF024108865DFF8640450F82400806D50F0F8
S1130C008000DFF8581451F8241088655CE0DFF8A0
S1130C104C0450F82400D0F8800050F00100DFF8B4
S1130C203C1451F82410C1F88000DFF8300450F867
S1130C302400006830F02000DFF8201451F824105C
S1130C400860DFF8180450F82400406D50F00400E8
S1130C50DFF8081451F824104865DFF8000450F850
S1130C602400406D50F00100DFF8F01351F8241017
S1130C704865012300222900C9B22000FFF70EFDB8
S1130C80002301222900C9B22000FFF707FD002339
S1130C9002222900C9B22000FFF700FD002303222D
S1130CA02900C9B22000FFF7F9FC0023042229001F
S1130CB0C9B22000FFF7F2FC002305222900C9B2C3
S1130CC02000FFF7EBFCFFE770BD10B4002A02D050
S1130CD0012A25D049E0DFF8843353F82030C9B223
S1130CE013EBC103DFF8744354F82040C9B214EB8A
S1130CF0C104E46834F00404DC60DFF8603353F8C2
S1130D002030C9B213EBC103DFF8504354F820403C
S1130D10C9B214EBC104E46854F00804DC6024E0B4
S1130D20DFF8383353F82030C9B213EBC103DFF8CE
S1130D302C4354F82040C9B214EBC104E46854F0C5
S1130D400404DC60DFF8143353F82030C9B213EB29
S1130D50C103DFF8084354F82040C9B214EBC104BE
S1130D60E46834F00804DC60FFE710BC70472DE948
S1130D70F14F82B00C0015001E005FF000080DF169
S1130D80080900208246D9F80000C0F384305FFAD5
S1130D908AFAC0B2824515D2D9F80000800910F051
S1130DA00702D9F80000400A10F01F001AEB0001F6
S1130DB0C9B2D9F80000C0F3C20000F0D1F91AF1A9
S1130DC0010AE0E74FF6FF7B012000F065FC00908C
S1130DD00098B0FBF5F04FF6FF71B0FBF1F007009F
S1130DE00098B0FBF5F0B0FBF7F0B0F5803F00D30E
S1130DF07F1C002082465FFA8AFABAF1070F25DACF
S1130E00012010FA0AF0381A002804D5012010FA3B
S1130E100AF0C01B03E0012010FA0AF0381A584502
S1130E2011D2D046012010FA0AF0381A002805D54C
S1130E30012010FA0AF0B0EB070B04E0012010FACD
S1130E400AF0B7EB000B1AF1010AD4E7012010FAFB
S1130E5008F0B84201DA18F101085FFA88F8B8F12D
S1130E60080F01DB072080460098012111FA08F1E0
S1130E70B0FBF1F0B0FBF5F0401E01904246D2B257
S1130E80019999F8000010F00700FFF7C1FAE4B2E5
S1130E90002C03D0022C1BD00DD326E00022D9F85D
S1130EA00000C00C10F01F0199F8000010F00700BA
S1130EB0FFF76EFC19E00222D9F80000C00C10F014
S1130EC01F0199F8000010F00700FFF761FC0CE027
S1130ED00322D9F80000C00C10F01F0199F800009B
S1130EE010F00700FFF754FCFFE73200D9F80000C8
S1130EF0C00C10F01F0199F8000010F0070000F07A
S1130F0059F8DFF8D80199F8001011F0070150F8EA
S1130F102100006830F01800DFF8C01199F80020B3
S1130F2012F0070251F822100860DFF8B00199F8B6
S1130F30001011F0070150F82100006850F008007B
S1130F40DFF8981199F8002012F0070251F82210E6
S1130F500860DFF8880199F8001011F0070150F8D3
S1130F6021000068C008C000DFF8701199F8002063
S1130F7012F0070251F822100860DFF8600199F8B6
S1130F80001011F0070150F8210000685FFA88F89A
S1130F9018F007010843DFF8441199F8002012F013
S1130FA0070251F82210086099F8000010F00700B9
S1130FB0BDE8FE8F30B4DFF8243153F820309B684D
S1130FC0534342F21074B3FBF4F3DFF8104154F8C6
S1130FD02040646E14F0013F33D0C9B2022491FB67
S1130FE0F4F505FB1415002D11D0DFF8F04054F88A
S1130FF02040C9B214EBC1040025A560DFF8DC4031
S113100054F82040C9B214EBC104236110E0DFF8A6
S1131010CC4054F82040C9B214EBC104002525612A
S1131020DFF8B84054F82040C9B214EBC104A361FE
S11310305FF0FF34DFF8A45055F82050C5F898400D
S113104007E0DFF8984054F82040C9B214EBC1041B
S1131050236130BC70470000AC5B0000CC5C000036
S113106038B504001E4850F82400002803D01C485A
S113107050F824008047194850F82400006810F004
S1131080C00F09D0154850F82400006830F08000E3
S1131090124951F82410086000200500114850F846
S11310A02400854218D20D4850F8240010EBC500E6
S11310B0C06810F0C00F0DD0084850F8240010EBA1
S11310C0C500064951F8241011EBC501C96831F077
S11310D08001C1606D1CE1E731BD0000CC5C000003
S11310E0A841FF1FD85C000080B50020FFF7B8FFBF
S11310F001BD80B50120FFF7B3FF01BD80B502201B
S1131100FFF7AEFF01BD10B450F8041B81B10268B3
S11311101218001D50F8043BDC0744BFA9F1010478
S1131120E31852F8044B43F8044B091FF9D1EBE7D9
S113113010BC7047012110F01F029140DFF8E42435
S113114040B2430942F823107047012110F01F02F6
S11311509140DFF8D42440B2430942F82310704789
S113116030B4DFF8C8341B68DFF8C44454F82040B6
S11311702343DFF8B8442360DFF8B83453F8203051
S1131180C9B2DFF8B04454F82040C9B254F8214041
S113119034F4E06443F82140DFF8983453F8203005
S11311A0C9B2DFF8904454F82040C9B254F8214041
S11311B0D2B2150215F4E0652C4343F8214030BC4B
S11311C0704710B4DFF864341B68DFF8644454F8E3
S11311D020402343DFF854442360D2B2002A03D0D2
S11311E0022A33D011D352E0DFF8483453F82030C8
S11311F0C9B2DFF8404454F82040C9B254F8214041
S113120034F0020443F8214041E0DFF8283453F875
S11312102030C9B2DFF81C4454F82040C9B254F855
S1131220214054F0020443F82140DFF8083453F815
S11312302030C9B2DFF8FC4354F82040C9B254F856
S1131240214054F0010443F8214020E0DFF8E43366
S113125053F82030C9B2DFF8DC4354F82040C9B257
S113126054F8214054F0020443F82140DFF8C43319
S113127053F82030C9B2DFF8BC4354F82040C9B257
S113128054F821406408640043F82140FFE710BC8F
S1131290704710B4DFF894331B68DFF8944354F8B4
S11312A020402343DFF884432360D2B2002A10D0C5
S11312B0DFF8803353F82030C9B253F8213053F0AB
S11312C02003DFF8704354F82040C9B244F82130B9
S11312D00FE0DFF8603353F82030C9B253F82130FF
S11312E033F02003DFF84C4354F82040C9B244F8EB
S11312F0213010BC704710B4DFF830331B68DFF8BE
S1131300304354F820402343DFF820432360D2B213
S1131310012A0DD1DFF8203353F820305B69012412
S11313208C402343DFF8104354F8204063610CE001
S1131330DFF8043353F820305B6901248C40A34365
S1131340DFF8F44254F82040636110BC704710B5D4
S113135004006078002806D002282AD016D3042876
S11313604DD039D35EE000226168C9B22078FFF71E
S113137028FF00226168C9B22078FFF78AFF0022A3
S11313806168C9B22078FFF7B6FF4BE002226168BA
S1131390C9B22078FFF715FF00226168C9B220782E
S11313A0FFF777FF00226168C9B22078FFF7A3FF37
S11313B038E001226168C9B22078FFF702FF0022F9
S11313C06168C9B22078FFF764FF00226168C9B27E
S11313D02078FFF790FF25E001226168C9B22078E8
S11313E0FFF7EFFE01226168C9B22078FFF751FFD1
S11313F001226168C9B22078FFF77DFF12E0002264
S11314006168C9B22078FFF7DCFE00226168C9B2C6
S11314102078FFF73EFF01226168C9B22078FFF708
S11314206AFFFFE701226168C9B22078FFF798FEDE
S113143010BD7CB504000D00160020008DF80000DE
S11314408DF80160019500A8FFF781FF2000C0B26C
S113145076BDF8B504000D0016001F00734800683F
S1131460734951F82410084370490860714850F8D2
S11314702400EDB26F4951F82410EDB251F8251053
S113148031F4702140F82510FFB2002F04D16B48CD
S11314902056FFF75AFE9AE0F6B2002E0BD0022E29
S11314A027D017D3042E46D032D3062E69D055D375
S11314B0072E79D08BE05F4850F82400EDB25D49E7
S11314C051F82410EDB251F8251051F4803140F850
S11314D025107CE0574850F82400EDB2554951F8E6
S11314E02410EDB251F8251051F4003140F82510C4
S11314F06DE0504850F82400EDB24E4951F82410E4
S1131500EDB251F8251051F4403140F825105EE059
S1131510484850F82400EDB2464951F82410EDB281
S113152051F8251051F4002140F825104348205665
S1131530FFF700FE4BE03F4850F82400EDB23D4970
S113154051F82410EDB251F8251051F4102140F84F
S113155025103A482056FFF7EDFD38E0354850F89D
S11315602400EDB2334951F82410EDB251F825109E
S113157051F4202140F8251030482056FFF7DAFDB9
S113158025E02C4850F82400EDB22A4951F82410E3
S1131590EDB251F8251051F4302140F825102748B8
S11315A02056FFF7C7FD12E0224850F82400EDB2A0
S11315B0204951F82410EDB251F8251051F440217E
S11315C040F825101D482056FFF7B4FDFFE7F1BD94
S11315D0164A1268164B53F820301A43134B1A60FC
S11315E00A00002A02D0164A42F82010704738B583
S11315F00400104850F82400D0F8A00005005FF063
S1131600FF300C4951F82410C1F8A0000C4850F8E0
S11316102400002804D02800094951F824108847E0
S113162031BD000000E100E080E100E038800440CA
S1131630945C0000805C00006C5C0000145D0000A1
S11316408441FF1F80B50020FFF7D1FF01BD80B5A5
S11316500120FFF7CCFF01BD80B50220FFF7C7FFD3
S113166001BD80B50320FFF7C2FF01BD80B5042092
S1131670FFF7BDFF01BD50F8041B61B150F8042B06
S1131680D30744BFA9F101039A18002342F8043B8D
S1131690091FFAD1EFE7704738B50400002500F0C0
S11316A0D9F82D4800682D490968090F491C484399
S11316B00500E4B22000002806D001280BD003283E
S11316C011D0042817D017E024480068000F401CEC
S11316D0B5FBF0F512E021480068C0F30360401C3C
S11316E0B5FBF0F50AE01D480068C0F30340401C58
S11316F0B5FBF0F502E001E000200500280032BD52
S11317001748006850F08070154908601548006853
S113171050F0010013490860704730B4124C24683B
S113172021000D4C2468114DB4FBF5F404FB00F4C6
S113173023005C182200914204D20B4C246894428A
S113174008D2FAE7084C2468A242FBD3064C24686A
S11317509442FBD330BC7047CC00FF1F448004404C
S1131760FCED00E0001000E0041000E040420F0037
S113177010B504004FF47A7000FB04F0FFF7CDFFBE
S113178010BD80B5FFF7BCFF01BD10B504002000FB
S1131790FFF7EEFF10BD704780B5FFF7FCFF01BDFA
S11317A04CF22050824908804DF628108049088068
S11317B04FF4E9707F4908805FF0FF307E4908608C
S11317C000207E4908707E480068400840007C493B
S11317D0086024207B4908709A207B4908707B4864
S11317E0007810F01F0079490870032078490870C8
S11317F0002078490870784800788007FBD576483F
S11318000078C006FBD474480078C0B210F00C0015
S11318100828F8D105206E49087058206D490870D1
S11318206E48654908606C4800788006FBD56A48B4
S113183000784006FBD51A20634908706648007892
S1131840C0B210F00C000C28F8D1634800784006B0
S1131850FBD5704710B45C4A1278C0231A4270D189
S11318605C4A1278520658D4574A127852071AD44E
S11318705B4A1278D20702D45A4A100002E04FF4AD
S1131880004210000122504B1B78C3F3C2039A405C
S11318901100C9B2B0FBF1F04A4A127830231A425F
S11318A004D0400902E04FF400421000474A127885
S11318B0D2B212F0E002002A0ED0202A10D0402A20
S11318C012D0602A14D0802A16D0A02A18D0C02A98
S11318D01AD0E02A1CD01FE04FF4207250435DE080
S11318E04FF4A062504359E04FF4F062504355E086
S11318F04FF42062504351E04FF4377250434DE0AF
S11319004FF4B762504349E040F69502504345E036
S113191040F67132504341E040E02D4A127812F013
S11319201F02521C11002F4AC9B2B2FBF1F210007F
S1131930284A127812F01F0218321100C9B2484323
S11319402CE0214A1278D2B212F0C002402A12D1FD
S11319501C4A1278D20703D44FF4004210001DE051
S1131960214A0123214C2478C4F34204A340B2FB4E
S1131970F3F2100012E0144A1278D2B212F0C0024C
S1131980802A0AD1164A1278D20702D4154A1000C6
S113199004E04FF40042100000E007E0064A126839
S11319A0120F521CB0FBF2F2114B1A6010BC7047BC
S11319B00E200540002005404480044000500640AD
S11319C004800440014006400040064003400640B5
S11319D0044006400540064006400640000017014A
S11319E00C4006400024F40000093D000840064075
S11319F0CC00FF1F10B582B072B600F086FF00F075
S1131A000DFE5FF4E1314AF2D30001F0DAFAFFF798
S1131A10B8FE01F09FFB00F080FA4FF416733222F7
S1131A20002146F2CA40FFF7A2F9002342F21072E5
S1131A300021DFF8480AFFF79AF9002342F21072F6
S1131A400021DFF83C0AFFF792F90122002148F255
S1131A508910FEF720FDDFF82C0A0168002001F050
S1131A6080FC01220021002001F086FC0FF2E571C8
S1131A70002001F0BFFC012214210120FFF7D9FC52
S1131A80012215210120FFF7D4FC01221621012097
S1131A90FFF7CFFC012217210120FFF7CAFC002227
S1131AA00B210120FFF7C5FC012304220B21012097
S1131AB0FFF7CFFC0FF285710120FFF789FD0122AA
S1131AC011210120FFF7B5FC042219210420FFF79E
S1131AD0B0FC042212210220FFF7ABFC40F2C62224
S1131AE000210220FFF766FA62B60120DFF8981998
S1131AF00860DFF898090078002811D1DFF8900910
S1131B00006800280CD06420DFF8881908604FF4BE
S1131B10FA60DFF8841908600120DFF87019087092
S1131B20DFF878090068002808D1A520DFF87019CB
S1131B300860DFF87009DFF870194861DFF86009A0
S1131B40006801F0A1FC00F055F902F01DFA00F064
S1131B5026FA02F031FA00F2C62200210220FFF731
S1131B6029FADFF848090068002824D0DFF8400982
S1131B700068002812D1DFF83C0900680090DFF803
S1131B8038090368DFF834090268DFF834090168AA
S1131B90DFF83009006802F0CDF804E0DFF824092A
S1131BA0006800F08FFBDFF81C090068401CDFF8B8
S1131BB01419086001E000F031FDDFF80C09006839
S1131BC0002832D0DFF80409007800280AD0012068
S1131BD0DFF8FC18086000F04AFA0020DFF8F0187B
S1131BE0086022E0DFF8EC080068401CDFF8E41825
S1131BF00860DFF8E0080068DFF8D8180968DFF843
S1131C00D828126891FBF2F1DFF8CC28126802FBA5
S1131C101100002809D10120DFF8B418086000F091
S1131C2065FA0020DFF8A8180860DFF88408006867
S1131C3000280DD0DFF894080078002804D1012092
S1131C40DFF88818087003E00020DFF880180870B7
S1131C50DFF86C080068DFF884180968C8420CDBF8
S1131C60DFF878080068DFF858180968884204DB50
S1131C700120DFF86C18087003E00020DFF860181A
S1131C800870DFF85C080078002807D0DFF85408F3
S1131C90006800F00AF9DFF850180870DFF84C0803
S1131CA090F82300DFF8481891F82310401A1E28F2
S1131CB00FDADFF8380890F82800DFF8341891F8C4
S1131CC02810401A232804DA0120DFF828180870A5
S1131CD003E00020DFF81C180870DFF8180800780B
S1131CE0002808D00020DFF8101808700020DFF862
S1131CF00C18086034E0DFF8E8070078DFF8E8172C
S1131D00097891F00101084208D0DFF888070068DB
S1131D1002F03AF9DFF8E417086021E0DFF8C007C1
S1131D200078DFF8C417097808420DD0DFF8D0072F
S1131D30006802F029F9DFF8C4170860052296212B
S1131D40012000F049FB0BE0DFF8B407006802F063
S1131D501BF9DFF8A81708600020DFF88417087063
S1131D60DFF834070068DFF84C170968884205DAA1
S1131D70DFF824070068DFF83C170860DFF878070D
S1131D80007800280ED0DFF82C070468DFF8280755
S1131D90006800F02BF902F00FF90019DFF81417AE
S1131DA0086003E00020DFF80C170860DFF8E8069D
S1131DB00068DFF800170968884205DADFF8D806FA
S1131DC00068DFF8F0160860DFF8E806006800280D
S1131DD003D50020DFF8DC160860DFF8D8060268B7
S1131DE005210020FFF7E6F8002207210020FFF775
S1131DF0E1F87EE62DE9F041002600210027DFF816
S1131E000407D0F80080DFF80007006840452DDBA8
S1131E10DFF8F80618F80000002801D0012000E0DF
S1131E200020B8F11F0F06DADFF8E00618F800000A
S1131E304C38411817E0080002F0E0F804000D00E7
S1131E40DFF8C80618F800004C3802F0D7F8002272
S1131E50DFF8BC3602F0E8F822002B0002F0B6F9F5
S1131E6002F028FA010018F10108CCE7DFF898061F
S1131E700068DFF890261268801A401C874202D15D
S1131E80002006000BE0DFF880060068DFF8742607
S1131E901268801A401CC01B91FBF0F00600DFF8AA
S1131EA0200606603000BDE8F08130B40100002255
S1131EB0002400230020DFF84C562D6885420EDBF9
S1131EC0DFF84856455D002D01D0012500E00025CE
S1131ED0DFF83856455D4C3D2C19401CEBE7DFF824
S1131EE024060068401C834202D10020020007E05F
S1131EF0DFF810060068401CC01A94FBF0F00200E2
S1131F00DFF8B80502604842904203DA8A4201DAF7
S1131F10002000E0012030BC704780B50020DFF8CD
S1131F20881588600020DFF8801508610020DFF83C
S1131F307815C860DFF8DC05DFF86C154861DFF858
S1131F40D805DFF8641588610020DFF85C15C861E6
S1131F50DFF84005006802F017F8DFF8A015086004
S1131F600020DFF8981548600020DFF8901588609D
S1131F700020DFF8881508610020DFF88015C860AC
S1131F80DFF89805DFF8741548615FF07C50DFF8DE
S1131F906C1588610020DFF86415C86101BD38B58F
S1131FA00400DFF804058460DFF8FC044169DFF80D
S1131FB0F804806802F0A4F90500DFF8EC048169F4
S1131FC0DFF8E404C06802F09BF90100280002F085
S1131FD003FADFF8D414C968DFF8CC241161DFF800
S1131FE0C8148968DFF8C024D16032BD38B5040054
S1131FF0200001F0C9FFDFF804154860DFF8FC0495
S11320000068DFF8F814496802F0E6F9DFF8EC1428
S11320108860DFF8E8044169DFF8E004806802F0D2
S11320206FF90500DFF8D4048169DFF8D004C068D3
S113203002F066F90100280002F0CEF90500DFF88D
S1132040BC04C169DFF8B404006902F059F929003D
S113205002F036FADFF8A414C968DFF8A02411618D
S1132060DFF898148968DFF89424D16032BD38B55C
S11320700121032000F060FFFE21032000F05CFF3B
S113208000200400322C28D200200500982D22D2F2
S1132090DFF88C040068982101FB0451085CFF28D8
S11320A00CD1DFF87C040068982101FB0451085C22
S11320B0411E89B2032000F03FFF0AE0DFF860040C
S11320C00068982101FB0451095C89B2032000F0E7
S11320D033FF6D1CDAE7641CD4E7FE21032000F013
S11320E02BFF0121032000F027FF31BD80B5DFF86D
S11320F0C40300684FF47A7190FBF1F030308DF82E
S11321000000DFF8B0030068642190FBF1F00A21BD
S113211090FBF1F201FB120030308DF80100DFF882
S1132120940300680A2190FBF1F00A2190FBF1F27C
S113213001FB120030308DF802000A20DD490968E5
S1132140DC4A126892FBF0F200FB121030308DF87A
S11321500300DFF8D013032000F0B6FC00A903202D
S113216000F0B2FCDFF8C00300684FF47A7190FB12
S1132170F1F030308DF80000DFF8AC030068642122
S113218090FBF1F00A2190FBF1F201FB12003030D8
S11321908DF80100DFF8900300680A2190FBF1F04C
S11321A00A2190FBF1F201FB120030308DF802009D
S11321B00A20DD490968DC4A126892FBF0F200FB50
S11321C0121030308DF80300D849032000F07CFC55
S11321D000A9032000F078FC30208DF80000B648F8
S11321E00068642190FBF1F030308DF80100B248B2
S11321F000680A2190FBF1F00A2190FBF1F201FB47
S1132200120030308DF802000A20AB490968AA4A4E
S1132210126892FBF0F200FB121030308DF80300CC
S1132220C349032000F050FC00A9032000F04CFC3B
S11322300A21032000F080FE01BD0000AE480078B2
S1132240002803D10120AC49087002E00020AA490B
S11322500870704738B50DF1020200A90120FEF79D
S1132260EBF9BDF900004042AF490860AE48006890
S113227001F08AFE5FF0884102F064F9AD4902F092
S11322803FF8AD4902F05EF902F0DAF9AB4AAC4B23
S113229001F0CAFE0022AB4B01F0C6FE04000D00A3
S11322A07848006801F0AAFE02000B002000290013
S11322B002F0EEF901F0FEFF7F4908600120FEF70D
S11322C0CBF931BD10B582B00400032094FBF0F1CA
S11322D000FB1140002801D100F0A0F901239A4A23
S11322E00021002000F07DFA01236F48426900219B
S11322F01E2000F08CFA0123944A0D21002000F0E6
S113230070FA0123684882690D211E2000F07FFACB
S113231001238F4A1A21002000F063FA0123624846
S1132320C2691A211E2000F072FA0123894A002191
S1132330402000F056FA01237048426900215E20D3
S113234000F065FA0123844A0D21402000F049FA87
S113235001236A4882690D215E2000F058FA0123A6
S11323607E4A1A21402000F03CFA01236348C269E6
S11323701A215E2000F04BFA0123794A272100201C
S113238000F02FFA4D480068642190FBF1F03030E2
S11323908DF80000494800680A2190FBF1F00A21F9
S11323A090FBF1F201FB120030308DF801000A209D
S11323B042490968414A126892FBF0F200FB12108C
S11323C030308DF80200012300AA2721422000F0BA
S11323D008FA00F0F5F813BD2DE9F04104000D00F2
S11323E0160001203A49086032480068401B022167
S11323F090FBF1F7022095FBF0F8474500DA4746D9
S1132400002C0DD1002205210020FEF7D3FD00226F
S113241007210020FEF7CEFD3000FFF7B6F927E0D4
S1132420012C16D1280001F0AFFD3449496901F0AF
S113243067FF02F051FA020005210020FEF7BAFD01
S1132440002207210020FEF7B5FD3000FFF79DF9BB
S11324500EE0022C0CD1002205210020FEF7AAFD7B
S11324602A0007210020FEF7A5FD3000FFF78DF9B3
S1132470002017490860BDE8F0810000184B2800CF
S1132480184F3800BC00FF1F6420FE43F041FF1FBB
S1132490540AFE43B000FF1FB800FF1F500AFE435A
S11324A0A400FF1F0000C8401441FF1F5C0AFE4344
S11324B0440AFE43BC41FF1FC441FF1FC841FF1F24
S11324C0CC41FF1FB841FF1F580AFE43ED41FF1FD7
S11324D04810FE43D041FF1FC800FF1FC000FF1F6C
S11324E0D400FF1FC400FF1FEE41FF1F7840FF1FF1
S11324F0AC40FF1FEF41FF1FEC41FF1F3441FF1FA2
S1132500B400FF1FA800FF1FAC00FF1FE040FF1F27
S11325100000F83F9A99C940CDCC4C3F00002040C0
S1132520DC41FF1F1C5D0000C041FF1FE45C000094
S1132530F05C0000000020420000D242CDCCCCCCA4
S1132540CC4C314080842E41245D00002C5D000081
S1132550345D00003C5D0000445D00004C5D000003
S1132560FC5C000010B4C9B2DFF8D4341960002355
S1132570DFF8D044236000231A00D2B2082A15DA07
S11325800023DFF8C4442360030604D50123DFF8E5
S1132590BC44236003E00023DFF8B044236001233C
S11325A0DFF8A44423604000521CE6E70123DFF86F
S11325B0944423600123DFF88844236010BC7047EF
S11325C070B500200400E4B2082C26DA0021B4F12E
S11325D05000C0B2FFF7C6FF00210220FFF7C2FF80
S11325E000211020FFF7BEFF00200500EDB2802D72
S11325F011DA0121DFF85804EDB26A1C802392FB42
S1132600F3F606FB132610EBC600E4B2205CFFF7DA
S1132610A9FF6D1CEAE7641CD5E770BD38B500203E
S11326200400E4B2082C10DA00200500EDB2802D7D
S113263009DADFF81C04EDB210EBC500E4B20021A6
S113264021546D1CF2E7641CEBE7FFF7B9FF31BDC1
S1132650F0B40025C0B2802802DAC9B2402900DBF8
S113266034E0C9B2082691FBF6F6D6F1070633002A
S1132670C9B2082691FBF6F707FB16173C000126A2
S1132680D4F10707BE403500D2B2002A0FD0DFF8DC
S1132690C063C0B216EBC006DBB2DFF8B473C0B2DD
S11326A017EBC007DBB2DF5D2F439F550EE0DFF869
S11326B0A063C0B216EBC006DBB2DFF89473C0B2FD
S11326C017EBC007DBB2DF5DAF439F55F0BC70472B
S11326D02DE9F04705000E0017009846089CA9460E
S11326E0FFB25FFA89F94F4514D3B2465FFA88F80E
S11326F05FFA8AFAD0450AD32200D2B25146C9B24F
S11327004846C0B2FFF7A4FF1AF1010AEEE719F137
S11327100109E5E7FFF754FFBDE8F0872DE9F84F1D
S113272005000E00170098460A9C8DF80060203FB3
S1132730002082465FFA8AFA5FFA88F8C2454ED2D0
S11327405FFA88F8B8F10C0F0AD1C248FFB20C2125
S113275001FB07005FFA8AFA1AF80000814608E0D4
S1132760BD48FFB210EB07105FFA8AFA1AF80000AE
S11327708146002083465FFA8BFBBBF1080F2BDAFE
S11327805FEA096008D52200D2B23100C9B228003C
S1132790C0B2FFF75DFF0CE0E4B2002C01D10122CE
S11327A000E00022D2B23100C9B22800C0B2FFF763
S11327B04FFF5FEA4909761CF6B29DF80000301A13
S11327C05FFA88F8404504D19DF8000006006D1CAE
S11327D002E01BF1010BCEE71AF1010AAAE7BDE8FA
S11327E0F18FF8B504000D0016001F0030780028A2
S11327F00CD0FFB200970C2332782900C9B2200014
S1132800C0B2FFF78BFFA41D761CEFE7F1BD2DE9E5
S1132810F04784B004000D0016001F0000A80A2130
S113282002F06CF85FF000098C48310001F068FD9B
S113283001F0C2FB82461FFA8AFABAF1000F07D0F0
S11328401FFA8AFA0A209AFBF0FA19F10109F2E751
S113285019F10109002000A95FFA89F909F80100BA
S11328607E48310001F04CFD01F0A6FB8246B9F12F
S1132870010080461FFA8AFABAF1000F24D01FFA29
S11328808AFA0A209AFBF0F100FB11A0303000A96B
S11328905FFA88F808F80100B8F101081FFA8AFA0B
S11328A00A209AFBF0FA5FFA88F85FFA89F9B9F11D
S11328B003008045DED12E2000A95FFA88F808F8CD
S11328C00100B8F10108D5E73B00DBB200AA2900FA
S11328D0C9B22000C0B2FFF784FFBDE8FF87002320
S11328E01800B0F57A7F0FD200231900C9B2C829A5
S11328F008DA00231A00D2B2C82A01DA521CFAE715
S1132900491CF3E7401CECE7704780B504220C2116
S11329100020FEF78EFD04220D210020FEF789FD24
S113292004220E210020FEF784FD04220F21002042
S1132930FEF77FFD042210210020FEF77AFD01201E
S113294041490860002046490860FFF7C8FF01209C
S1132950434908600021AE20FFF704FE0021D52082
S1132960FFF700FE00215020FFF7FCFD0021A82006
S1132970FFF7F8FD00213F20FFF7F4FD0021D320ED
S1132980FFF7F0FD00210020FFF7ECFD00214020BF
S1132990FFF7E8FD00218D20FFF7E4FD002114205E
S11329A0FFF7E0FD00212020FFF7DCFD00210220DD
S11329B0FFF7D8FD0021A120FFF7D4FD0021C0209E
S11329C0FFF7D0FD0021DA20FFF7CCFD0021122013
S11329D0FFF7C8FD00218120FFF7C4FD0021EF208F
S11329E0FFF7C0FD0021D920FFF7BCFD0021F12035
S11329F0FFF7B8FD0021DB20FFF7B4FD00213020F4
S1132A00FFF7B0FD0021A420FFF7ACFD0021A620B4
S1132A10FFF7A8FD0021AF20FFF7A4FDFFF7FEFD9F
S1132A200123104A00210020FFF7DBFEFFF7C8FD59
S1132A3000200D49086001200C49086001BD000018
S1132A403400FE433000FE433C00FE434000FE439E
S1132A50383CFF1FCC550000DC4F00000000C8428A
S1132A603800FE43545D00001010FE431410FE4372
S1132A7038B504000D002878002806D0297889B2DA
S1132A80200000F059FA6D1CF5E731BDF8B50400DB
S1132A900D00B4FBF5F0002806D0B4FBF5F00600F9
S1132AA029003000FFF7F2FFB4FBF5F005FB1040FE
S1132AB00700DFF848060068395C89B2DFF8380699
S1132AC0007800F039FAF1BD0EB478B5040006AE12
S1132AD0059800780599491C05910500C0B2252880
S1132AE00BD0EDB2002D01D100202EE0EDB2290073
S1132AF089B2200000F020FAEAE705980078050082
S1132B000598401C0590EDB2642D02D0EDB26C2DF9
S1132B1003D10A213068FFF7B9FFEDB26F2D02D05F
S1132B20EDB2782D08D1EDB26F2D01D1082100E06E
S1132B3010213068FFF7AAFFEDB2732D03D131687D
S1132B402000FFF795FF361DC2E772BC5DF810FB4D
S1132B50F8B504000120FEF79FFD07002079002846
S1132B6002D02079012803D10020FEF795FD07004B
S1132B702760DFF88C0521790C2202FB0100006834
S1132B800068DFF87C1522790C2303FB02114968E5
S1132B900843DFF86C1522790C2303FB0211096842
S1132BA00860DFF86005217950F82100DFF854153A
S1132BB0227951F82210C97811F0F301C17020680C
S1132BC0A1680901B0FBF1F0050020684001A1688B
S1132BD00901B0FBF1F0ADB26901401A0600DFF85B
S1132BE02405217950F82100007810F0E000DFF886
S1132BF01415227951F822100870DFF8080521799C
S1132C0050F821004078DFF8FC14227951F82210A2
S1132C1000224A70DFF8EC14227951F82210DFF810
S1132C20E424237952F82320927A12F0E0028A7283
S1132C30DFF8D014227951F822100978ADB22A0AAB
S1132C4012F01F021143DFF8BC24237952F8232029
S1132C501170DFF8B014227951F822104D70DFF8AA
S1132C60A414227951F82210DFF89824237952F819
S1132C702320927A16F01F031A438A72217B0029BB
S1132C8004D002291FD003293AD056E0DFF8740497
S1132C90217950F82100DFF86C14227951F82210C0
S1132CA0897811F0FD018170DFF85804217950F81A
S1132CB02100DFF85014227951F82210897811F09C
S1132CC0EF01817039E0DFF83C04217950F82100EC
S1132CD0DFF83014227951F82210897851F002017A
S1132CE08170DFF82004217950F82100DFF81414F2
S1132CF0227951F82210897811F0FE0181701CE0CC
S1132D00DFF80004217950F82100DFF8F813227964
S1132D1051F82210897851F002018170DFF8E40340
S1132D20217950F82100DFF8DC13227951F82210C0
S1132D30897851F001018170FFE7607B002802D09F
S1132D40012842D083E0DFF8BC03217950F8210048
S1132D50807880071CD5DFF8AC03217950F8210076
S1132D60DFF8A013227951F82210897851F010016C
S1132D708170DFF89003217950F82100DFF8841383
S1132D80227951F82210897A11F0DF0181721BE057
S1132D90DFF87003217950F82100DFF868132279F5
S1132DA051F82210897811F0EF018170DFF8540393
S1132DB0217950F82100DFF84C13227951F82210C0
S1132DC0897A11F0DF01817241E0DFF8380321795B
S1132DD050F82100807880071CD5DFF8280321797A
S1132DE050F82100DFF81C13227951F82210897859
S1132DF051F010018170DFF80C03217950F82100A3
S1132E00DFF80013227951F82210897A51F0200159
S1132E1081721BE0DFF8EC02217950F82100DFF821
S1132E20E412227951F82210897851F0100181704E
S1132E30DFF8D002217950F82100DFF8C812227996
S1132E4051F82210897A11F0DF018172FFE7DFF86F
S1132E50B402217950F82100DFF8A812227951F840
S1132E602210497911F0DF014171DFF898022179CC
S1132E7050F82100DFF88C12227951F82210C97819
S1132E8051F00C01C170DFF880020078002803D0F3
S1132E902079DFF8641208700020DFF86C120870E3
S1132EA0F1BDC9B200290DD0DFF8582252F8202014
S1132EB0127C52F08002DFF84C3253F820301A743E
S1132EC0D2B20CE0DFF83C2252F82020127C12F03F
S1132ED07F02DFF8303253F820301A74D2B27047D0
S1132EE0C9B200290DD0DFF81C2252F82020127C30
S1132EF052F00802DFF80C3253F820301A74D2B2C0
S1132F000CE0DFF8002252F82020127C12F0F702C5
S1132F10DFF8F03153F820301A74D2B27047DFF87A
S1132F20EC11DFF8E02152F82000007CC0F302101D
S1132F30C0B251F82000704770B504000D00DFF8EE
S1132F40C40150F82400007C00060BD5DFF8B4015E
S1132F5050F82400067D2000FFF7E1FFF6B2864218
S1132F6007D3F3E7DFF89C0150F82400007900064A
S1132F70F8D5DFF8900150F82400C571ADB2280AE5
S1132F8010F00100C0B200280DD0DFF8781151F81C
S1132F902410897951F04001DFF8682152F8242087
S1132FA09171C9B20CE0DFF85C1151F824108979F1
S1132FB011F0BF01DFF84C2152F824209171C9B2FD
S1132FC070BD71B585B00C0005AE0294307810F078
S1132FD007008DF8040000208DF80C0000208DF807
S1132FE00D00002005003068C0F38430EDB2C0B29B
S1132FF0854210D23068800910F007023068400A18
S113300010F01F002918C9B23068C0F3C200FEF7DF
S1133010A7F86D1CE7E700A8FFF79AFD00213078B8
S113302010F00700FFF73DFF0021307810F0070093
S1133030FFF756FF307810F0070006B070BD1CB5DE
S11330400400304850F824000079000615D52D48B6
S113305050F82400C07800060FD52D4850F82400FD
S1133060002804D000A82A4951F824108847BDF844
S11330700000244951F82410C871224850F8240053
S11330800079800616D51F4850F82400C0788006C1
S113309010D51C4850F82400C079ADF800001D4834
S11330A050F82400002805D0BDF80000194951F853
S11330B024108847134850F824000079000704D5E9
S11330C0104850F82400C07901900E4850F82400AC
S11330D00079C0060FD50B4850F82400C079019040
S11330E00C4850F82400002805D04FF6FF70094919
S11330F051F82410884713BDF141FF1FD000FF1F72
S1133100E05A0000545C0000D500FF1FF45B00008F
S11331105441FF1F6C41FF1F80B50020FFF78FFF54
S113312001BD80B50120FFF78AFF01BD80B50220F3
S1133130FFF785FF01BD80B50320FFF780FF01BDC8
S113314080B50420FFF77BFF01BD80B50520FFF7A4
S113315076FF01BD10B58CB0012206210220FEF7D6
S113316068F961490220FEF733FA0023042206219C
S11331700220FEF76EF9022207210220FEF759F918
S113318059490220FEF724FA0023042207210220D1
S1133190FEF75FF9022202210220FEF74AF900231A
S11331A0002202210220FEF754F901220821022004
S11331B0FEF73FF9012209210220FEF73AF9012224
S11331C00A210220FEF735F901220B210220FEF725
S11331D030F901220C210220FEF72BF901220D21E6
S11331E00220FEF726F901220E210220FEF721F922
S11331F001220F210220FEF71CF9012304220621DB
S11332000220FEF726F90123042207210220FEF7FB
S113321020F90123002202210220FEF71AF900A856
S1133220302101F06FFB00208DF8000033208DF871
S1133230010000208DF806000120ADF8020098205E
S1133240ADF8040029480390002005900020029066
S113325000208DF8100000208DF8180000200A903E
S11332600120079000208DF8240000208DF82C0008
S113327000A801F04BFB002001F05CFC00240422B8
S113328000210220FEF7D5F8042203210220FEF7D4
S1133290D0F8E4B2002C06D12421142001F0CAFC99
S11332A000190400F5E7E4B2012C06D12021242002
S11332B001F0C0FC00190400F5E7E4B2022C06D1C9
S11332C0C121702001F0B6FC00190400F5E7E4B256
S11332D0032C06D1A021062001F0ACFC0019040047
S11332E0F5E70CB010BD00BF415A000091F00F404B
S11332F0012110F01F029140514A40B2430942F8A3
S11333002310704710B504004E48006850F40000C4
S11333104C4908600120FEF7BFF94B4908604A4850
S113332000684A49B0FBF1F0474908604648006824
S11333306168484346492278120150504448217834
S113334010EB0110806850F001004149227811EB24
S1133350021188603F48006830F002003D4908606F
S113336010BD30B583B004000D008DF80040019508
S113337000A8FFF7C7FF37BD70B504000D001600A5
S11333803048006850F400002E490860F6B2002E60
S113339004D03148E4B22056FFF7AAFFF6B2002E5B
S11333A00CD02B48E4B210EB0410806850F00200FB
S11333B02749E4B211EB041188600BE02448E4B21D
S11333C010EB0410806830F002002149E4B211EBE4
S11333D004118860F6B2002E0BD11D48E4B210EB44
S11333E00410C06850F001001949E4B211EB041153
S11333F0C86070BD134A126852F40002114B1A607F
S11334000A00002A03D0154AC0B242F820107047BF
S113341010B504000E4810EB0410C06850F0010011
S11334200B4911EB0411C8600C4850F82400002823
S113343003D00A4850F82400804710BD0000000063
S113344000E100E03C800440D441FF1F40420F00F3
S11334500071034000700340605D00009841FF1F4D
S113346080B50020FFF7D4FF01BD80B50120FFF730
S1133470CFFF01BD80B50220FFF7CAFF01BD80B5B3
S11334800320FFF7C5FF01BD2DE9F14F83B0039879
S1133490DFF8D01A0860002200238DF804300023DE
S11334A000248DF8064000248DF8054000250026F0
S11334B000275FF0000C5FF0000EDFF8ACAADFF825
S11334C0ACBADBF800B09BF800B01BF80AA0BAF164
S11334D0980F4ED0DFF890AADFF890BADBF800B06E
S11334E09BF800B01BF80AA0BAF1000F41D0DFF836
S11334F07CAADAF800A09AF800A0BAF10F0F38DA23
S1133500DFF86CAADFF864BADBF800B09BF800B00F
S11335101BF80AA01AF1010ACDF800A0DFF848BA96
S1133520DFF848AADAF800A09AF800A01AF80BA06D
S1133530DDF800B0D34516DADFF82C8ADFF82CAAC0
S1133540DAF800A09AF800A01AF80880DFF820AA98
S1133550DFF818BADBF800B09BF800B01BF80AA03B
S1133560B8EB0A0801E05FF0010818F1080A5046B8
S113357057E0DFF800AADFF800BADBF800B09BF8E8
S113358000B01BF80AA0BAF1000F44D0DFF8E8A994
S1133590DAF800A09AF800A0BAF10F0F3BDADFF8CE
S11335A0D4A9DFF8D4B9DBF800B09BF800B01BF85D
S11335B00AA0CDF800A0DFF8B8B9DFF8BCA9DAF8A2
S11335C000A09AF800A01AF80BA0DDF800B01AEBDE
S11335D00B0A0FFA8AFABAF1870F02DB5FF086084A
S11335E015E0DFF89089DFF890A9DAF800A09AF8DE
S11335F000A01AF80880DFF878A9DFF87CB9DBF8B6
S113360000B09BF800B01BF80AA01AEB080818F1E8
S1133610080A504605E05FF04C0AD04618F1080A43
S11336205046DFF850A9DFF850B9DBF800B09BF83A
S113363000B01BF80AA0BAF1000F44D0DFF838A993
S1133640DAF800A09AF800A0BAF10F0F3BDADFF81D
S113365024A9DFF824B9DBF800B09BF800B01BF80C
S11336600AA0CDF800A0DFF808B9DFF80CA9DAF851
S113367000A09AF800A01AF80BA0DDF800B01AEB2D
S11336800B0A0FFA8AFABAF18B0F16DADFF8E4980C
S1133690DFF8E4A8DAF800A09AF800A01AF8099074
S11336A0DFF8CCA8DFF8D0B8DBF800B09BF800B0A6
S11336B01BF80AA01AEB090901E05FF08B0919F164
S11336C0080A514654E0DFF8A0A8DFF8A0B8DBF8F8
S11336D000B09BF800B01BF80AA0BAF1980F41D0D3
S11336E0DFF888A8DAF800A09AF800A0BAF10F0F62
S11336F038DADFF87CA8DFF874B8DBF800B09BF8A0
S113370000B01BF80AA01AF1050ACDF800A0DFF8F2
S113371058B8DFF858A8DAF800A09AF800A01AF808
S11337200BA0DDF800B0D34516DADFF83C98DFF8DB
S11337303CA8DAF800A09AF800A01AF80990DFF87B
S113374030A8DFF828B8DBF800B09BF800B01BF80D
S11337500AA0B9EB0A0901E05FF0050919F1080AAA
S1133760514605E05FF04C0AD14619F1080A51466A
S11337705FF0000A5246D2B2322A80F2D982DFF8D0
S1133780FCA7DAF800A0D2B25FF0980B0BFB02AAF8
S11337905446D2B2002A00F09F81B2F1010B8DF899
S11337A004B09DF804A0BAF1000F17D0D2B29DF86E
S11337B004A0B2EB0A0ABAF1050F0FDADFF8A8A7E2
S11337C09DF804B01BF80AA0BAF1980F06D19DF831
S11337D004A0BAF1010B8DF804B0E2E7DFF888A782
S11337E09DF804B01BF80AA0BAF1980F00F080808D
S11337F0DFF87CA79DF804B01BF80AA0CDF800A060
S1133800DFF864B79DF804A01AF80BA0DDF800B047
S1133810D34545D2DFF85CA7D2B212EB0A0A1AF8F4
S113382001ACBAF1000F27D0DFF83CA79DF804B033
S11338301BF80AA0CDF800A0DFF834B79DF804A067
S11338401AF80BA0DDF800B0BBEB0A0ADFF824B7C6
S1133850D2B212EB0B0B1BF801BC1BF1050BDA45C2
S11338600ADADFF810A7D2B212EB0A0A1AF801AC8E
S11338701AF1050AD04637E0DFF8ECA69DF804B04B
S11338801BF80AA0CDF800A0DFF8E4B69DF804A068
S11338901AF80BA0DDF800B0BBEB0A0AD04623E00F
S11338A0DFF8D0A6D2B212EB0A0A1AF801ACBAF1C8
S11338B0000F16D0DFF8BCA6D2B212EB0A0A1AF82F
S11338C001AC1AF1050ABAF1900F0ADADFF8A4A6DE
S11338D0D2B212EB0A0A1AF801AC1AF1050AD04660
S11338E002E05FF0010AD04618F1080A50462DE0C4
S11338F0DFF880A6D2B212EB0A0A1AF801ACBAF1C8
S1133900000F1DD0DFF86CA6D2B212EB0A0A1AF827
S113391001AC1AF1050A0FFA8AFABAF1870F02DB31
S11339205FF0860808E0DFF84C86D2B212EB080894
S113393018F8018C18F1050818F1080A504605E03A
S11339405FF04C0AD04618F1080A5046B2F1010A59
S11339505346DBB2002B10D0D2B2DBB2B2EB030A77
S1133960BAF1050F09DADFF80CA6DBB213F80AA0E6
S1133970BAF1000F01D15B1EEBE7DFF8F8A5DBB26B
S113398013F80AA0BAF1000F7CD0DFF8E8A5DBB287
S113399013F80AA0DFF8D8B5DBB213F80BB01BEBB1
S11339A00A0A0FFA8AFABAF18B0F41DADFF8B8A5DE
S11339B0D2B212EB0A0A1AF801ACBAF1980F29D064
S11339C0DFF8A4A5D2B212EB0A0A1AF801ACBAF1D4
S11339D00D0ACDF800A0DFF89CA5DBB213F80AB0FD
S11339E0DFF88CA5DBB213F80AA01AEB0B0ADDF89A
S11339F000B00FFA8BFB0FFA8AFAD3450ADADFF824
S1133A0068A5D2B212EB0A0A1AF801ACBAF10D0A8F
S1133A10D14633E0DFF85CA5DBB213F80AA0DFF887
S1133A2050B5DBB213F80BB01BEB0A0AD14625E004
S1133A30DFF834A5D2B212EB0A0A1AF801ACBAF1D3
S1133A40980F03D15FF08B0AD14617E0DFF818A571
S1133A50D2B212EB0A0A1AF801ACBAF10E0F0ADB61
S1133A60DFF804A5D2B212EB0A0A1AF801ACBAF1D3
S1133A700D0AD14602E05FF04C0AD14619F1080A5A
S1133A80514629E0DFF8E0A4D2B212EB0A0A1AF890
S1133A9001ACBAF1980F19D0DFF8CCA4D2B212EB72
S1133AA00A0A1AF801ACBAF1130F09DBDFF8B8946B
S1133AB0D2B212EB090919F8019CB9F10D0901E020
S1133AC05FF0050919F1080A514605E05FF04C0A58
S1133AD0D14619F1080A51460FFA89F9B9F1010FD3
S1133AE06DDB0FFA89F9B9F1010F68DB9DF805A0C8
S1133AF0BAF1000F63D10FFA89F919F804A01AF189
S1133B00320A09B211F804B0DA4554DA0FFA89F925
S1133B1019F804A01AF1320A09B211F804B0DA450E
S1133B2011DA0FFA89F9B9F1010F0CDB09B211F8B6
S1133B3004A0BAF1FF0F00DA761CB9F10109491E9D
S1133B40F6B2022EE2DBF6B2022E30DB19F1020BE2
S1133B508DF808B05FF0000A56465FF0000AD646BA
S1133B605FF0000A5746FFB20A2F12DADFF8F4A317
S1133B70DAF800A00FFA89F919EB040BFFB217EB7E
S1133B800B0B9BF802B0DA4501DA1EF1010E7F1C23
S1133B90E9E75FFA8EFEBEF1070F04DB5FF0010B6D
S1133BA08DF805B09DE75FF0000A564699E75FF08F
S1133BB0000A564695E7B9F10109491E91E700B29A
S1133BC098286EDA00B298286BDA9DF806A0BAF14C
S1133BD0000F66D100B210F804A01AF1320A0FFAED
S1133BE088F818F804B0DA4557DA00B210F804A0DF
S1133BF01AF1320A0FFA88F818F804B0DA4510DA24
S1133C0000B298280DDA0FFA88F818F804A0BAF16F
S1133C10FF0F00DA6D1C18F10108401CEDB2022DF3
S1133C20E3DBEDB2022D34DB8246BAF1020B8DF8F0
S1133C3007B05FF0000A55465FF0000AD6465FF011
S1133C40000AD4465FFA8CFCBCF10A0F13DADFF8E1
S1133C5014A3DAF800A000B210EB040B5FFA8CFC9A
S1133C60BBEB0C0B1BF802BCDA4501DA1EF1010EAA
S1133C701CF1010CE6E75FFA8EFEBEF1070F04DBD0
S1133C805FF0010B8DF806B09CE75FF0000A554623
S1133C9098E75FF0000A554694E718F10108401CC4
S1133CA090E79DF806A0BAF1000F0BD05FF0000B6F
S1133CB08DF806B09DF807A0DFF8ACB2D2B202F8D6
S1133CC00BA006E05FF0980ADFF89CB2D2B202F8CB
S1133CD00BA09DF805A0BAF1000F0BD05FF0000B0C
S1133CE08DF805B09DF808A0DFF888B2D2B202F8CA
S1133CF00BA006E05FF0000ADFF878B2D2B202F857
S1133D000BA0DFF864A2D2B212F80AA0DFF864B202
S1133D10D2B212F80BB01BEB0A0A5FF0020B9AFB4B
S1133D20FBFADFF85CB2D2B202F80BA0521C22E517
S1133D30BDE8FF8F2DE9F84304000F0090461D00F5
S1133D40089E032094FBF0F100FB1140002801D1F0
S1133D50FEF764FC5FF00009B9F1320F43DA012089
S1133D600090D9F13F03DBB286487F4919F801106E
S1133D70085CD0F17F02D2B2D9F13F01C9B2002070
S1133D80FEF7A6FC01200090D9F13F03DBB27F22AD
S1133D90D9F13F01C9B27B48DFF8D8C119F80CC08A
S1133DA01CF80000D0F17F00C0B2FEF791FC0122A4
S1133DB0D9F13F01C9B273486B4B19F80330185C51
S1133DC0704BDFF8B0C119F80CC01CF80330181898
S1133DD0022390FBF3F0D0F17F00C0B2FEF738FC71
S1133DE019F10109B8E7012000900D237F220D216C
S1133DF00020FEF76DFC002F00D57F420A2097FBC0
S1133E00F0F00A2190FBF1F201FB120030308DF842
S1133E1000000A2097FBF0F100FB117030308DF8A0
S1133E20010000208DF8020000208DF8030001231A
S1133E3048A200210020FEF7D4FC012300AA00219F
S1133E400C20FEF7CEFCB8F1000F01D5D8F1000824
S1133E500A2098FBF0F00A2190FBF1F201FB12001A
S1133E6030308DF800000A2098FBF0F100FB11803F
S1133E7030308DF8010000208DF8020000208DF80C
S1133E800300012334A200211A20FEF7AAFC012317
S1133E9000AA00212C20FEF7A4FC642095FBF0F07E
S1133EA030308DF800000A2095FBF0F00A2190FBD9
S1133EB0F1F201FB120030308DF801000A2095FB6D
S1133EC0F0F100FB115030308DF8020000208DF825
S1133ED00300012321A200213A20FEF782FC0123E2
S1133EE000AA00214620FEF77CFC4FF47A7096FB72
S1133EF0F0F030308DF80000642096FBF0F00A21D9
S1133F0090FBF1F201FB120030308DF801000A2021
S1133F1096FBF0F00A2190FBF1F201FB1200303025
S1133F208DF802000A2096FBF0F100FB116030309E
S1133F308DF8030001230AA200215A20FEF751FC48
S1133F40012300AA00216620FEF74BFCFEF738FB94
S1133F50BDE8F183453D000050453D00533D000060
S1133F60463D0000A000FF1F7840FF1FE041FF1FF7
S1133F70285B0000AC40FF1FE441FF1FDC41FF1F32
S1133F80E040FF1F0000FF1F002840F10780F446B7
S1133F90404200F003F850F0004060470AD0B0FA05
S1133FA080F18840D1F19D01C905020672F10042F9
S1133FB041EB1020704700004100090E7F3915D4F1
S1133FC0D1F11F0114D4400007D2C00140F00040D9
S1133FD0C84048BF6FF000407047C00140F0004047
S1133FE0C8404CBF4FF0004040427047002070472B
S1133FF000424FF0004058BFC0437047010040F1F9
S11340000780F446404200F003F851F00041604755
S113401009D0B0FA80F18840C91CC1F58461090552
S113402001EBD02140057047B0B581EA030C0CF0D8
S1134030004C40F2FF7515EA11541DBF15EA1357E1
S1134040AC42AF4239E0E41923EA455343F4801308
S1134050C90241F0004141EA505EC7021100A7FBCA
S1134060020200284FF00000EEFB01204FF0000197
S1134070E3FB072118BF42F0010240180021494127
S1134080E3FB0E01A4F580640F0302D25200404109
S1134090494154F101046CDD470872F1004250F1CA
S11340A0000051EB0451A1F580115CBF41EA0C0101
S11340B0B0BD4CEA05510020B0BD05EA1357AC422F
S11340C014BFAF4241E050EA410E1CBF52EA430E16
S11340D002E061460020B0BD24423C441BD15FEAAB
S11340E0070EF6D0090302BF01460020AEF1140EFC
S11340F0B1FA81F7AEEB070401FA07FE0C37C7F1FA
S1134100200100FA07F7C8404EEA000E23EA45539F
S113411043F48013A2E733F00043B3FA83F704BFF8
S1134120B2FA82FE77440B3FE41BB7F1200E2FBF97
S113413002FA0EF3BB40C7F1200E22FA0EFE38BF7E
S113414043EA0E03BA40641C82E750EA410E14BFEE
S113415052EA430E6FF000014FF4001717EB430FC0
S11341608ABF194617EB410FB5E74CEA0551002009
S1134170B0BDD4F10104B4F120070FDAC4F1200773
S1134180520828BF42F0010210FA07F501FA07F7B6
S1134190E1BF2A43E0403843E1400FE0352C98DC8E
S11341A0C7F1200452EA400220FA07F218BF42F095
S11341B0010231FA07F0A1400A43002172F10042E2
S11341C050F1000051EB0C01B0BD000070B44FF091
S11341D0004591EA030C44BF6B4000F0FFBD00BFF3
S11341E0841A71EB030603D2001BB1411219734107
S11341F04FF4001C1CEB410F34BF7CEB430443E041
S11342000C0DA4EB1356352E50DC45EAC323DB0A10
S113421045EAC121C912B6F120050DDD63FA05F6A0
S1134220EB4086EA0305124218BF45F00105C018A9
S113423051F100010CD213E062FA06F5F240554048
S1134240F3415A40B340F3405A408018594107D3D0
S113425049085FEA30005FEA350528BF45F00105EB
S113426001F58011420875F1004250F1000041EB64
S1134270045170BC4FF4001C1CEB410F38BF704755
S11342800020090D090570471CEB410F10D252EABA
S113429043060BD0BCEB410F05D80C0DAB43661E97
S11342A0342EB5DD02E0AB438018594170BC704731
S11342B070BC7047F446400D40EAC120490006D264
S11342C000F00EF8004248BF6FF00040604700F075
S11342D007F84FF0004188428CBF084640426047CF
S11342E040F00040490DA1F58061491C05D4D1F18D
S11342F01F0154BFC840C01770474FF000007047FB
S1134300FF2212EAD05C1DBF12EAD15394459342B6
S11343102BE09C44D30780EA01021A4043EA0020C0
S113432043EA0121A1FB0030410038BF40007CF189
S11343307F010BDBFE294ADA5B0842EAC15153EAEA
S1134340006373F1004C51EB10207047D1F1080C5D
S1134350DCF120012FDB5B0810FA01F10B4373F150
S1134360004120FA0CF05041704794451CBF02EA0A
S1134370D153934280EA010202F000421DD0400072
S113438019D0490017D05BB9634514D00902B1FABA
S113439081F39940BCEB030CC00140F00040C1E73D
S11343A00002B0FA80FC10FA0CF0B3EB0C0CC9015B
S11343B041F00041B6E71000704740000AD04900C0
S11343C008D010F1807F94BF11F1807F02E042F0A9
S11343D0FF407047D043704790EA010F44BF81F01B
S11343E0004100F075B800BF431A4FF000423EBFD1
S11343F05340C01AC91800BFD3095FEAD05C13EB5D
S1134400400F34BFB3EB410F40E07CEBD1530CD3EE
S113441042EA012122D8D1EB402009D3400A28BF27
S11344205FEA500140EBCC507047401A15D040026F
S1134430B0FA80F2521C9040400A4FEA3C23B3EB9E
S1134440026384BF00EB730007E040F400001A1617
S1134450DB07C2F10102D04018437047182BFCDC83
S113446031FA03F202FA03F3591A38BF42F0010297
S1134470D2EB40203CBF4000ACF1010C5FEACC5CC5
S1134480C20572F100414CEB5020704713EB400F12
S11344900FD24B0009D0ACEBD153022B03DB490202
S11344A0172BDDDD70479143401A4300D5D100201E
S11344B0704713EB410FD0D36FF00000704700003A
S11344C090EA010F44BF81F00041FFF78DBF00BFA8
S11344D0421A3CBF801A89184FF0004CC0F3C752EF
S11344E0FF2A24D0C1F3C75313B3D21AD2F119034C
S11344F027DD4CEA01214CFA03F321EA0303D140FE
S1134500C20D4CEA0020401834BF20EA0C004CEAEB
S11345105000D20553EA006373EB0C0C52EB1020ED
S1134520420012F1807F38BF7047C00DC00570474C
S1134530490212BF9A4200EB5120F8E7D2F1170367
S1134540D9D5704710B5FF2313EAD0541DBF13EA21
S1134550D1529C429A4239E0A41ADA0780EA010354
S1134560134042EA012142EA0020421A3CBF641E81
S113457001EB4202090AB2FBF1FE01FB1E22120208
S1134580B2FBF1F001FB10226EF30F201202B2FB1A
S1134590F1FE4EEA00207F3406DDFE2C24DA53EAD5
S11345A0500050EBC45010BDD4F1020401FB1E2294
S11345B040F08071192C1DDC21FA04F0C4F12004B0
S11345C0A140114371F10042584110BD9C421ABFF1
S11345D003EAD1529A420FE080EA010E0EF0004342
S11345E0400004D0490016D143F0FF4010BD4900FB
S11345F008BFD343180010BD9C4205D1D21AF7D08E
S113460001F00041484010BD4A0212BF084648402C
S113461000F0004010BD4AB90902B1FA81F291409C
S113462044B1A418C00140F000409EE7C90141F024
S1134630004152420002B0FA80F4A040141B94E7F7
S11346405FF0FF0C1CEAD05114BF614506E0C110B5
S1134650400721F0E04101F16051704779B900F061
S1134660004100020AD0B0FA80FC00FA0CF001F11B
S11346706051A1EB0C5101EBD02140057047410280
S11346800CBF40F4E0016FF000010020704700000F
S1134690F0B540F2FF7581EA030C0CF0004C15EA0A
S11346A011541DBF15EA1357AC42AF42E5E0BC41BB
S11346B0C1F31301C3F31303801A994143F4801324
S11346C004D2641E4000494180185941C90241EA9C
S11346D05051B1FBF3F603FB1611A2FB0675D7EBA1
S11346E0C020A94102D2761E80185941C90241EA6C
S11346F05051B1FBF3FE03FB1E11A2FB0E75D7EB69
S1134700C020A94103D2AEF1010E8018594189029B
S113471041EA9051760546EA8E2EB1FBF3F603FB8F
S11347201611A2FB0675D7EB8020A94102D2761E92
S113473080185941C90241EA50514EEA060EB1FBB4
S1134740F3F603FB1611A2FB0675D7EBC020A941B3
S113475002D2761E80185941C90241EA5051B1FB78
S1134760F3F703FB1711A2FB0735D3EBC020A941D4
S113477067F100070CBF004247F0010766F3D52735
S11347804FEA1E31B80814F5806412DDBD0775F1D7
S1134790004250EB0E5051EB045111F5801F5CBFE9
S11347A041EA0C01F0BD4CF07F6141F0E041002092
S11347B0F0BDBD076D0840EA0E5041F48011D4F1FC
S11347C00104B4F120060ADAC4F120060200E04034
S11347D001FA06F3E1401843B24015430EE0342CCD
S11347E013DCC6F1200445EA40056D0820FA06F200
S11347F0154321FA06F0A1400D43002175F1004252
S113480050F1000051EB0C01F0BD00205FEA0C01F7
S1134810F0BDCFB992185B41B3FA83F704BFB2FA83
S113482082F6BF190B3FB7F120062FBF02FA06F339
S1134830BB40C7F1200622FA06F638BF3343BA401C
S11348401CB1E419641E33E77F4231F00041B1FA30
S113485081F404BFB0FA80F6A4190B3CB4F120062D
S11348602FBF00FA06F1A140C4F1200620FA06F693
S113487038BF3143A0403C1B1AE7AC421ABF05EADB
S11348801357AF4212E050EA41061CBF52EA4306F6
S1134890BFE750EA4107304661461CBF41EA055173
S11348A0F0BD52EA430C08BFC143F0BD00204FF4F1
S11348B0001616EB410F98BF16EB430F08BF16EB1B
S11348C0410F24BFC14305E016EB430F0CBF614603
S11348D04CEA0551F0BD000040000DD2010E7F39B5
S11348E00AD4D1F11F0104D4C00140F00040C840F3
S11348F070477FF00000704700207047002200F0EE
S113490023BB0000002200F04FBB000010B40100E4
S1134910DFF85C22126852F00202DFF854321A60A7
S1134920DFF84C22126852F00202DFF844321A60B7
S1134930DFF84022126852F00202DFF838321A60BF
S11349400A781000DFF830221268012383409A436A
S1134950DFF824321A604A7812F03F02DFF81C3282
S11349601B68C0B2C2548A79002A02D0012A0DD031
S113497019E0DFF808221268C0B2825C12F0BF02AC
S1134980DFF8F8311B68C0B2C2540CE0DFF8EC2148
S11349901268C0B2825C52F04002DFF8E0311B685A
S11349A0C0B2C254FFE70022C0B2430103F1804306
S11349B013F51043DA800022C0B2430103F18043AF
S11349C013F510439A834A88C0B2430103F180432C
S11349D013F510439A608A885204520CC0B2430102
S11349E003F1804313F51043DA828A885204520C8F
S11349F0C0B2430103F1804313F51043DA83CA685C
S1134A00DFF87C31C0B24401E2508A68C0B243018D
S1134A1003F1804313F510439A80C0B2420102F1BE
S1134A20804212F51042D2880B7C1B0213F4E0631F
S1134A301A43C0B2430103F1804313F51043DA80F3
S1134A40C0B2420102F1804212F51042D2880B7EBC
S1134A5052EAC322C0B2430103F1804313F5104369
S1134A60DA804A69C0B2430103F1804313F510436D
S1134A70DA600A6AC0B2430103F1804313F51043BC
S1134A801A61CA69C0B2430103F1804313F51043AC
S1134A909A82C0B2420102F1804212F51042D288D9
S1134AA091F8243013F007031A43C0B2430103F111
S1134AB0804313F51043DA80C0B2420102F1804210
S1134AC012F51042D28891F82C30DB0013F0F80371
S1134AD01A43C0B2430103F1804313F51043DA8053
S1134AE08A6AC0B2430103F1804313F510439A610B
S1134AF0C0B2420102F1804212F51042928B52F090
S1134B000802C0B2430103F1804313F510439A83B2
S1134B101A4A1268C0B2825C52F08002174B1B68BA
S1134B20C0B2C254C0B210BC704710F00F01154A95
S1134B301170704710F00F01134A11707047C0B222
S1134B40420102F1804212F510421161704710B522
S1134B50040014F00F000E4908700C4850F82400AB
S1134B60002803D0094850F82400804710BD0000F5
S1134B703C800440408004400C8000405C5D0000A8
S1134B80009000401B8000401A8000403840FF1F06
S1134B901F80004080B50020FFF7D9FF01BD80B51C
S1134BA00120FFF7D4FF01BD80B50220FFF7CFFF3E
S1134BB001BD80B50320FFF7CAFF01BD80B5042005
S1134BC0FFF7C5FF01BD80B50520FFF7C0FF01BD9C
S1134BD080B50620FFF7BBFF01BD80B50720FFF7B6
S1134BE0B6FF01BD80B50820FFF7B1FF01BD80B558
S1134BF00920FFF7ACFF01BD80B50A20FFF7A7FF2E
S1134C0001BD80B50B20FFF7A2FF01BD80B50C20CC
S1134C10FFF79DFF01BD80B50D20FFF798FF01BD93
S1134C2080B50E20FFF793FF01BD80B50F20FFF77D
S1134C308EFF01BD38B504000D0000F01FF80028F8
S1134C4001D1002019E0422000F090F800F061F852
S1134C50002803D100F047F800200EE02000C0B285
S1134C6000F084F800F055F82800C0B200F07EF897
S1134C7000F04FF800F037F8012032BD80B5012074
S1134C804F49086001204F49086041F2883000F024
S1134C909FF800204C4908604C480068002804D163
S1134CA001204949086000201CE0012046490860B1
S1134CB000204349086041F2883000F089F8002060
S1134CC04149086041480068002804D001203E4959
S1134CD00860002006E001203B49086000203849B4
S1134CE00860012002BD80B500203649086000201C
S1134CF03349086041F2883000F06AF801203149F4
S1134D00086001202E49086041F2883000F060F804
S1134D1001BD80B500202B49086041F2883000F0C5
S1134D2057F801202649086041F2883000F050F815
S1134D3001202449086000202349086041F288309A
S1134D4000F046F821480068002807D001201E49D9
S1134D50086000201B490860002006E001201A4971
S1134D600860002017490860012002BD38B504001E
S1134D7008252800451EC0B200281CD00020114977
S1134D80086041F2883000F023F8200603D50120A2
S1134D900B49086002E0002009490860640041F200
S1134DA0883000F015F801200649086041F2883087
S1134DB000F00EF8DDE700200249086031BD000074
S1134DC00C10FE430010FE438C12FE430C12FE43F3
S1134DD080B2002801D0401EFAE77047841A71EBB4
S1134DE0030604D26E40001BB141121973414FF403
S1134DF0001C1CEB410F34BF7CEB430684E00C0D1C
S1134E00A4EB1356362E7DDC012E43DC45EAC32386
S1134E1043EA525312BFD20292025B08240545EAC8
S1134E20C12141EA5051D2EBC020994125D407D188
S1134E30B0FA80F610FA06F164D00020203608E0BB
S1134E40B1FA81F6B140C6F1200220FA02F2114310
S1134E50B0404FEAF474B4EB465434F001064FEA20
S1134E6074040AD8D6F50016760D04F00044F04018
S1134E7061FA06F25040F1404840C00A40EA41500D
S1134E8021F0004128BF5FEA500550F1000044EBD7
S1134E90D12137E045EAC323DB0A45EAC121C90A27
S1134EA0B6F120050EDD42EA0242120CC5F12006DD
S1134EB003FA06F6EB4042EA06056D42984161F1B9
S1134EC000010DE062FA06F5F240554063FA06FC73
S1134ED082EA0C02F3405A406D42904161EB0301B7
S1134EE011F4801F05D1641E620502D06D0040419B
S1134EF0494121F48011430875F1004350F1000049
S1134F0041EB045170BC70471CEB410F15D223F0E8
S1134F10004352EA43060BD04FEA4C0CBCEB410F62
S1134F2004D80C0D661E342EB7DDEBE7801A9941C8
S1134F3050EA410608BF0021E4E708BF1CEB430F19
S1134F4028BF6FF00001DDE7401810F0030308D01C
S1134F50C91A1FD3DB0748BF00F8012D28BF20F86A
S1134F60022D130030B414461546103928BF20E929
S1134F703C00FAD8490728BF20E90C0048BF40F894
S1134F80042D890028BF20F8022D48BF00F8012D08
S1134F9030BC7047C91818BF00F8012DCB0728BFD3
S1134FA000F8012D7047000000B500BF13009646BD
S1134FB09446103928BFA0E80C50FAD85FEA417C27
S1134FC028BF0CC048BF40F8042BC90728BF20F8ED
S1134FD0022B48BF00F8012B00BD000000000000B8
S1134FE000000000000000000000000000000000BD
S1134FF000001FCC000C00000000000000000800AE
S1135000300060000800300060000000022003FC53
S11350101E20022003FC1E200220000000000E18A7
S113502011043FFF10840C78000000000F0010846E
S11350300F3800C0077818840078000000780F84C7
S113504010C411240E9800E40084000808006800CD
S113505070000000000000000000000000000000DC
S1135060000007E01818200440020000000040027D
S11350702004181807E0000000000000024002406D
S113508001800FF001800240024000000080008097
S113509000800FF800800080008000000001000DF7
S11350A0000E00000000000000000000000000806E
S11350B00080008000800080008000800000000CE0
S11350C0000C0000000000000000000000000006CA
S11350D0001800600180060018002000000007F09E
S11350E0080810041004080807F000000000080471
S11350F008041FFC000400040000000000000E0C63
S113510010141024104411840E0C000000000C181C
S113511010041104110412880C700000000000E057
S11351200320042408241FFC0024000000001F980E
S1135130108411041104108810700000000007F09E
S113514008881104110418880070000000001C0075
S1135150100010FC13001C001000000000000E38AA
S113516011441084108411440E380000000007001C
S1135170088C10441044088807F000000000000068
S11351800000030C030C00000000000000000000FD
S11351900001010600000000000000000000008083
S11351A0014002200410080810040000022002201C
S11351B0022002200220022002200000000010042D
S11351C008080410022001400080000000000E00C6
S11351D01200100C106C10800F00000003E00C187B
S11351E013E4142417C4082807D000000004003C6A
S11351F003C41C40074000E4001C000410041FFC0E
S11352001104110411040E880070000003E00C184E
S113521010041004100410081C10000010041FFCDB
S1135220100410041004080807F0000010041FFC08
S11352301104110417C410040818000010041FFC02
S11352401104110017C010000800000003E00C183E
S11352501004100410441C780040000010041FFCCB
S113526010840080008010841FFC100400001004CF
S113527010041FFC100410040000000000030001CF
S1135280100110011FFE10001000000010041FFC8C
S1135290110403801464181C1004000010041FFC83
S11352A01004000400040004000C000010041FFC9F
S11352B01F0000FC1F001FFC1004000010041FFC52
S11352C00C04030000E010181FFC100007F008088D
S11352D0100410041004080807F0000010041FFC58
S11352E010841080108010800F00000007F0081850
S11352F010241024101C080A07F2000010041FFCDC
S11353001104110011C011300E0C000400000E1C19
S113531011041084108410441C380000180010007C
S113532010041FFC100410001800000010001FF8E7
S113533010040004000410041FF8100010001E00E4
S113534011E0001C007013801C0010001FC0103CF2
S113535000E01F0000E0103C1FC000001004180C07
S1135360163401C001C01634180C100410001C00BF
S1135370130400FC13041C00100000000804101C9B
S11353801064108413041C041018000000000000B2
S113539000007FFE40024002400200000000300096
S11353A00C0003800060001C0003000000004002A9
S11353B0400240027FFE00000000000000000000E8
S11353C020004000400040002000000000010001D7
S11353D00001000100010001000100010000400083
S11353E040002000000000000000000000000098C1
S11353F0012401440144014400FC000410001FFC8A
S1135400008801040104008800700000000000709E
S113541000880104010401040088000000000070F9
S113542000880104010411081FFC0004000000F8B6
S1135430014401440144014400C800000000010487
S113544001040FFC1104110411001800000000D61F
S113545001290129012901C90106000010041FFCCA
S1135460008401000100010400FC000400000104A8
S1135470190419FC000400040000000000000003EB
S113548000010101190119FE0000000010041FFCB5
S11354900024004001B4010C0104000000001004C9
S11354A010041FFC0004000400000000010401FCBF
S11354B00104010001FC0104010000FC010401FCE1
S11354C0008401000100010400FC0004000000F855
S11354D0010401040104010400F80000010101FFBA
S11354E000850104010400880070000000000070C1
S11354F0008801040104010501FF00010104010405
S113550001FC00840104010001800000000000CCC3
S11355100124012401240124019800000000010059
S1135520010007F80104010400000000010001F873
S1135530000400040004010801FC000401000180CF
S11355400170000C001001600180010001F0010CE9
S1135550003001C00030010C01F001000000010422
S1135560018C00740170018C0104000001010181AF
S11355700171000E00180160018001000000018427
S1135580010C013401440184010C000000000000FE
S11355900000000001003EFC400240020000000048
S11355A000000000FFFF00000000000000004002B7
S11355B040023EFC0100000000000000000060000A
S11355C08000800040004000200020000000000017
S11355D00000000000000000000000003F40000048
S11355E000000000000030004000300040000000D7
S11355F009000BC03D000BC03D00090018C0244049
S11356007FE0224031800000180024C01B000D8080
S11356103240018003801C4027401C80074000402A
S11356201000600000000000000000000000000006
S113563000001F80204040200000402020401F80A8
S113564000000000090006001F8006000900000099
S1135650040004003F800400040000000010006007
S11356600000000000000000040004000400040026
S113567004000000000000400000000000000000E2
S1135680002001C006003800400000001F802040B8
S1135690204020401F800000000010403FC0004018
S11356A00000000018C0214022402440184000009F
S11356B010802040244024401B80000002000D0084
S11356C011003FC0014000003C802440244024409D
S11356D0238000001F8024402440344003800000C5
S11356E03000200027C03800200000001B80244028
S11356F0244024401B8000001C0022C02240224081
S11357001F800000000000000840000000000000AE
S1135710000000000460000000000000000004001D
S11357200A00110020804040090009000900090016
S11357300900000000004040208011000A0004001D
S11357401800200023402400180000001F8020407F
S1135750274029401F400000004007C039000F00C7
S113576001C0004020403FC0244024401B80000072
S11357701F802040204020403080000020403FC057
S1135780204020401F80000020403FC024402E4085
S113579030C0000020403FC024402E0030000000F4
S11357A00F001080204022403380020020403FC080
S11357B0040004003FC02040204020403FC020405F
S11357C0204000000060202020203FC02000200056
S11357D020403FC024400B0030C0204020403FC048
S11357E020400040004000C03FC03C0003C03C00DB
S11357F03FC0000020403FC00C4023003FC02000B9
S11358001F802040204020401F80000020403FC0D7
S113581024402400180000001F802140214020E083
S11358201FA0000020403FC02440260019C00040B3
S113583018C0244024402240318000003000204021
S11358403FC020403000000020003F800040004066
S11358503F80200020003E0001C0070038002000E7
S1135860380007C03C0007C038000000204039C0A1
S1135870060039C0204000002000384007C03840EE
S113588020000000304021C02640384020C00000E5
S1135890000000007FE04020402000000000700075
S11358A00C000380004000000000402040207FE006
S11358B00000000000002000400020000000000064
S11358C00010001000100010001000100000000074
S11358D04000000000000000000002800540054078
S11358E003C0004020003FC0044004400380000087
S11358F000000380044004400640000000000380D0
S1135900044024403FC0004000000380054005409F
S113591003400000000004401FC024402440200035
S1135920000002E0055005500650042020403FC00E
S11359300440040003C000400000044027C00040AD
S11359400000000000100010041027E00000000018
S113595020403FC00140070004C0044020402040D4
S11359603FC000400040000007C0040007C004001E
S113597003C00000044007C00440040003C000400A
S1135980000003800440044003800000041007F07A
S113599004500440038000000000038004400450CD
S11359A007F00010044007C0024004000400000097
S11359B0000006400540054004C00000000004004B
S11359C01F800440004000000400078000400440A1
S11359D007C000400400070004C001800600040062
S11359E0060001C0070001C006000000044006C014
S11359F0010006C0044000000410071004E0018008
S1135A00060004000000044005C0064004400000F5
S1135A100000000004007BE04020000000000000C3
S1135A200000FFF000000000000040207BE00400C4
S1135A3000000000400080004000200020004000E2
S1135A4010B50400200614D51F480088022190FBDD
S1135A50F1F202FB1102012A06D11B4800886428D6
S1135A6002DA0020FFF761F817480088401C164945
S1135A700880600627D50020134908801348006871
S1135A80142805D211480068401C104908601AE027
S1135A900F480088D0F101000D4908800C480088A7
S1135AA0002801D00B4900E00B490020FFF747F81C
S1135AB007480088002803D007480849086002E026
S1135AC004480649086010BDEA41FF1FD841FF1F82
S1135AD0E841FF1FD800FF1F881EFF1FDC41FF1F86
S1135AE034800440000400000000000034800440BE
S1135AF00008000000000000348004400010000092
S1135B000000000034800440002000000000000079
S1135B1028800440000400000000000028800440A5
S1135B200008000000000000282828282828282829
S1135B3028282828282828262626262623232323FF
S1135B40231D1C1B191918181818171717171616C0
S1135B5016161515151515141414000080B50748EC
S1135B60006850F080000549086005480068002876
S1135B7002D003480068804701BD000000000440D3
S1135B80B441FF1F10B5074979441831064C7C44D1
S1135B90163404E00A68081D511888470146A142DA
S1135BA0F8D110BD2C0000004C0000003C800440E3
S1135BB000000001000000003C80044000000002DE
S1135BC000000000308004400000000100000000DC
S1135BD0A7BAFFFF1C410000D800FF1F000000000F
S1135BE027B5FFFFD8000000B40200000000FF1F2B
S1135BF00000000001000000040000000800000094
S1135C0010000000200000004000000080000000A0
S1135C1000F00BF8002801D0FFF7B4FF0020C046C5
S1135C20C046FBF7E7FE00F002F80120704700F0E1
S1135C3001B800000746384600F002F8FBE7000010
S1135C4080B5C046C046024A11001820ABBEFBE72F
S1135C502600020000A0064000B0064000C0064036
S1135C6000D0064000A00E4000B00E4000F00F40EF
S1135C7040F00F4080F00F40C0F00F4000F10F40A3
S1135C800090044000A0044000B0044000C0044060
S1135C9000D00440000200000004000000080000DE
S1135CA00010000000200000303132333435363724
S1135CB038394142434445460000000001488047CA
S1135CC001480047A1170000095D0000008003405F
S1135CD00090034000800B40080000000200000018
S1135CE00200000020202050756C73653D200000E8
S1135CF020202053706565643D2000005072654487
S1135D0069724572723D0000C046C046C046C04636
S1135D10FFF77EFF5758595A5B00000050574D3D1E
S1135D2020000000735F4B703D000000735F4B69FF
S1135D303D000000735F4B643D0000006D5F4B70DD
S1135D403D0000006D5F4B693D0000006D5F4B64DA
S1135D503D0000004F4C454400000000001002408C
S1135D6044454647FFF7FEBFFFF7FEBFFFF7FEBF00
S1135D70FFF7FEBFFFF7FEBFFFF7FEBFFFF7FEBF53
S1135D80FFF7FEBFFFF7FEBFFFF7FEBFFFF7FEBF43
S1135D90FFF7FEBFFFF7FEBFFFF7FEBFFFF7FEBF33
S1135DA0FFF7FEBFFFF7FEBFFFF7FEBFFFF7FEBF23
S1135DB0FFF7FEBFFFF7FEBFFFF7FEBFFFF7FEBF13
S1135DC0FFF7FEBFFFF7FEBFFFF7FEBFFFF7FEBF03
S1135DD0FFF7FEBFFFF7FEBFFFF7FEBFFFF7FEBFF3
S1135DE0FFF7FEBFFFF7FEBFFFF7FEBFFFF7FEBFE3
S1135DF0FFF7FEBFFFF7FEBFFFF7FEBFFFF7FEBFD3
S1135E00FFF7FEBFFFF7FEBFFFF7FEBFFFF7FEBFC2
S1135E10FFF7FEBFFFF7FEBFFFF7FEBFFFF7FEBFB2
S1135E20FFF7FEBFFFF7FEBFFFF7FEBFFFF7FEBFA2
S1135E30FFF7FEBFFFF7FEBFFFF7FEBFFFF7FEBF92
S1135E40FFF7FEBFFFF7FEBFFFF7FEBFFFF7FEBF82
S1135E50FFF7FEBFFFF7FEBFFFF7FEBFFFF7FEBF72
S1135E60FFF7FEBFFFF7FEBFFFF7FEBFFFF7FEBF62
S1135E70FFF7FEBFFFF7FEBFFFF7FEBFFFF7FEBF52
S1135E80FFF7FEBFFFF7FEBFFFF7FEBFFFF7FEBF42
S1135E90FFF7FEBFFFF7FEBFFFF7FEBF00000102E2
S1135EA00304040506070808090A0B0C0C0D0E0F61
S1135EB0101111121314151516171819191A1B1C81
S1135EC01D1D1E1F202122222324252626272829A2
