S01A0000323031375345552D43616D65726144656D6F2E7372656358
S11300005062FF1F5D600000652200000561000072
S1130010096100000D610000116100000000000092
S11300200000000000000000000000001561000056
S113003019610000000000001D6100002161000042
S1130040A1500000AB500000B5500000BF500000AC
S1130050C9500000D3500000DD500000E7500000FC
S1130060F1500000FB500000055100000F5100004A
S113007019510000235100002D5100003751000098
S113008025610000296100002D610000316100003C
S113009035610000396100003D61000041610000EC
S11300A045610000496100004D610000516100009C
S11300B055610000596100005D610000616100004C
S11300C065610000696100006D61000071610000FC
S11300D075610000796100007D61000081610000AC
S11300E085610000896100008D610000916100005C
S11300F0956100002921000099610000332100006E
S11301009D6100003D210000A16100004721000025
S1130110A561000051210000A96100005B210000DD
S1130120AD610000B1610000B5610000B96100007B
S1130130BD610000C1610000E1300000EB3000004F
S1130140F5300000C5610000C9610000CD61000008
S11301509D320000A7320000B1320000BB32000023
S1130160D1610000D5610000D9610000DD610000AB
S1130170E1610000E5610000E9610000ED6100005B
S1130180F1610000F5610000F9610000FD6100000B
S113019001620000FD5E000005620000D53700002A
S11301A0DF370000E9370000F3370000FD370000B7
S11301B0096200000D620000116200001562000077
S11301C0196200001D620000216200002562000027
S11301D0296200002D6200003162000035620000D7
S11301E0396200003962000039620000396200009F
S11301F0396200003962000039620000396200008F
S1130200396200003962000039620000396200007E
S1130210396200003962000039620000396200006E
S1130400FFFFFFFFFFFFFFFFFFFFFFFFFEFFFFFFF9
S113041010B582B072B601F080FA01F007F95FF40A
S1130420E1314AF2D30001F0D4FD01F010FF01F0F4
S11304301DFF00F0C2FB00233222002146F2CA4015
S113044002F091FC002342F210720021DFF8A80BA5
S113045002F089FC002342F210720021DFF89C0BA9
S113046002F081FC0122002148F2891002F00FF809
S1130470DFF88C0B0168002002F091FE01220021BC
S1130480002002F097FEDFF87C1B002002F0D0FE73
S113049001221421012003F094F8012215210120E6
S11304A003F08FF801221621012003F08AF80122BB
S11304B01721012003F085F800220B21012003F00D
S11304C080F8012304220B21012003F08AF8DFF8CD
S11304D0381B012003F044F901221121012003F00B
S11304E070F804221921042003F06BF8042212216D
S11304F0022003F066F8DFF8140B026800210220E2
S113050002F054FD62B60120DFF8041B08600620E7
S113051001F0A1FEDFF8FC0A0068401CDFF8F41AC1
S11305200860DFF8F40A0068002800F0F08000207A
S1130530DFF8841C08700120DFF8E01A0870DFF887
S1130540E00A0068002825D0DFF8D80A00680028EF
S113055000F0D0800F20DFF8BC1A0968DFF8B42A55
S1130560126892FBF0F200FB1210002840F0C280E7
S1130570DFF8B40A0068401EDFF8AC1A0860DFF840
S1130580A80A0068002840F0B5800720DFF8981A10
S11305900860AFE0DFF88C0A0068002800F0AA8049
S11305A00F20DFF8701A0968DFF8682A126892FBD6
S11305B0F0F200FB1210002840F09C80DFF8680A7B
S11305C00068012813D1DFF8640A006803F02CF9ED
S11305D0DFF85C1ADFF85C2A126851F8221003F085
S11305E03BF903F0ADF9DFF8441A086082E0DFF864
S11305F0380A0068022813D1DFF8C00B006803F042
S113060013F9DFF82C1ADFF82C2A126851F822109B
S113061003F022F903F094F9DFF8A01B086069E005
S1130620DFF8040A006803280FD1DFF8940B006890
S1130630DFF8FC19DFF8FC29126851F8221003F0E6
S11306400BF9DFF87C1B086054E0DFF8DC09006874
S113065004280FD1DFF86C0B0068DFF8D419DFF839
S1130660D429126851F8221003F0F6F8DFF8541B6D
S113067008603FE0DFF8B009006805280FD1DFF813
S1130680480B0068DFF8A819DFF8A829126851F8A8
S1130690221003F0E1F8DFF8301B08602AE0DFF8ED
S11306A08809006806280FD1DFF8A00B0068DFF87E
S11306B08019DFF88029126851F8221003F0CCF871
S11306C0DFF8881B086015E0DFF85C09006807287C
S11306D010D1DFF860090068401EDFF8581908607F
S11306E0DFF85009006810F1010F03D10520DFF88D
S11306F044190860DFF81C09006842F2107188424E
S11307001DD15FF0FF30DFF80C19086017E0DFF847
S113071008090068002812D1DFF8000900780028D1
S11307200DD000F04AFA0020DFF8F018087000201D
S1130730DFF81C1B08600020DFF8D8180860DFF819
S1130740140B006803F01EF900F080F903F06CF854
S113075000F0A5FA03F0F4F800F2D520DFF8F81A57
S11307600860DFF8A80800689630DFF8EC1A09681A
S1130770884206DADFF8940800689630DFF8D81A61
S11307800860DFF8D40A0068DFF880180968963931
S1130790884206DADFF8740800689638DFF8B81A79
S11307A00860DFF87408006800280BD1DFF8AC0A91
S11307B00068002806D0DFF8A00A026800210220A1
S11307C002F0F4FBDFF850080068002817D1DFF8C6
S11307D0900A0068002812D0DFF8880A00680090A8
S11307E0DFF8840A0368DFF8C40C0268DFF8C00C81
S11307F00168DFF82008006803F01AFD06E0DFF85E
S113080018080068002801D000F040FDDFF8100847
S11308100068002832D0DFF8540A007800280AD093
S11308200120DFF84C1A086000F0C9FA0020DFF854
S1130830401A086022E0DFF83C0A0068401CDFF838
S1130840341A0860DFF82C0A0068DFF8281A0968EF
S1130850DFF8242A126891FBF2F1DFF81C2A1268EF
S113086002FB1100002809D10120DFF8041A0860F6
S113087000F0E4FA0020DFF8F8190860DFF89807C0
S11308800068002812D1DFF89C07006800280DD00A
S1130890DFF8D8090078002804D10120DFF8CC194A
S11308A0087003E00020DFF8C4190870DFF8000CBA
S11308B00068DFF8C8190968C8420CDBDFF8BC0916
S11308C00068DFF8EC1B0968884204DB0120DFF8CC
S11308D0B019087003E00020DFF8A4190870DFF8ED
S11308E0A0090078002807D0DFF89809006800F014
S11308F001F9DFF894190870DFF8A80B90F82800C4
S1130900DFF8A41B91F82810401A00F02FFE1E28CF
S113091016DADFF8900B90F82D00DFF88C1B91F8B5
S11309202D10401A00F022FE1E2809DADFF8E40632
S11309300068B0F5FA7F03DD0120DFF814190860C0
S1130940DFF80C090068012808D10020DFF86818D6
S113095008700020DFF8F81808602FE0DFF820099D
S11309600078DFF82419097891F00101084208D0D1
S1130970DFF8B806006802F057FFDFF8381B08609C
S11309801CE0DFF8FC080078DFF8FC18097808425E
S113099008D0DFF82808006802F046FFDFF8141BCF
S11309A008600BE0DFF81408006802F03DFFDFF890
S11309B0041B08600020DFF8C8180870DFF8F80787
S11309C0007800280ED0DFF89C080468DFF8980847
S11309D0006800F0BBF902F0B3FF0019DFF88418D7
S11309E0086003E00020DFF87C180860DFF8C80A1C
S11309F00068DFF870180968884205DADFF8B80A79
S1130A000068DFF860180860DFF858080068DFF84D
S1130A10AC1A0968C84206DADFF8A00A0068404246
S1130A20DFF840180860DFF83C080068DFF88C1A2B
S1130A3009680A180421002002F0B8FADFF87C0AD9
S1130A4002680621002002F0B1FA60E5F8B500243E
S1130A5000250026DFF8680A0768DFF8680A0068DE
S1130A60B84227DBDFF83C0A385CDFF83C1A795CD3
S1130A70401A00F07BFD2E2819DBDFF84C0A385CA5
S1130A804C2814D0DFF8400A385C4C3800F06EFD76
S1130A903C280CDADFF8300A385C4C384FF48271A9
S1130AA0484317F1D20190FBF1F0451900E0761CA0
S1130AB07F1CD2E7DFF80C0A0068DFF8041A096823
S1130AC0401A401C864202D1002004000BE0DFF8EB
S1130AD0F4090068DFF8E8190968401A401C801B13
S1130AE095FBF0F00400DFF8C8090460DFF8C009E2
S1130AF00068F2BD2DE9F04104000025002600271E
S1130B00DFF8C809D0F80080DFF8C4090068404560
S1130B102DDBDFF8900918F80000DFF88C1918F8BD
S1130B200110401A00F022FD2E281CDBDFF8980982
S1130B3018F800004C2816D0DFF88C0918F80000CB
S1130B404C3800F013FD3C280DDADFF87C0918F866
S1130B5000004C384FF48271484318F1D20190FBE5
S1130B60F1F0861900E07F1C18F10108CCE7DFF8EA
S1130B7060090068DFF854190968401A401C87426C
S1130B8002D1002005000BE0DFF844090068DFF81B
S1130B903C190968401A401CC01B96FBF0F0050084
S1130BA0DFF8080905606042A84203DAA54201DAC9
S1130BB0002000E00120BDE8F08180B50020DFF8CE
S1130BC0141988600020DFF80C1908610020DFF890
S1130BD00419C860DFF8E8050068DFF8F818486110
S1130BE0DFF8DC050168DFF8F008006803F04AFC70
S1130BF0DFF8E818096803F0B1FCDFF8D818886159
S1130C00DFF8BC050168DFF8BC05006803F03AFCB6
S1130C10DFF8C418096803F0A1FCDFF8B818C8614C
S1130C20DFF80804006802F0FFFDDFF888180860A8
S1130C300020DFF8801848600020DFF8781888600A
S1130C400020DFF8701808610020DFF86818C86019
S1130C50DFF874050068DFF85C184861DFF86805A0
S1130C600168DFF87408006803F00CFCDFF8DC1599
S1130C70096803F073FCDFF83C188861DFF8480565
S1130C800168DFF85C08006803F0FCFBDFF8481833
S1130C90096803F063FCDFF81C18C86101BD70B576
S1130CA004000025DFF82C088460DFF82808806839
S1130CB0DFF82018C96802F0CFFD02F041FE00F011
S1130CC055FC02F0B1FD0100DFF81808006803F0DC
S1130CD0C3FC01D200200500DFF8F807806802F0A9
S1130CE02FFE00F043FC02F09FFDDFF8FC170968BB
S1130CF003F0B2FC02D20020050025E0DFF8D4079F
S1130D004169DFF8D007806803F0BCFB0600DFF818
S1130D10C4078068DFF8BC17C96802F09DFDDFF8DE
S1130D20B417C96903F0AEFB310003F0A7FC05005A
S1130D30DFF8A007C068DFF89C170861DFF89407A4
S1130D408068DFF89017C860280070BD38B50400CB
S1130D50200002F069FDDFF85C174860DFF85407F3
S1130D600068DFF85017496802F076FDDFF8441791
S1130D708860DFF840078068DFF83817C96802F038
S1130D806BFDDFF83017496903F07CFB0500DFF8E1
S1130D9024078169DFF81C07806803F073FB2900CE
S1130DA003F06CFCDFF80C17C968DFF80827116141
S1130DB0DFF800178968DFF8FC26D16032BD38B54A
S1130DC00121032001F0C0F8FE21032001F0BCF84A
S1130DD000200400322C28D200200500982D22D2B5
S1130DE0DFF808070068982101FB0451085CFF281C
S1130DF00CD1DFF8F8060068982101FB0451085C67
S1130E00411E89B2032001F09FF80AE0DFF8DC06F6
S1130E100068982101FB0451095C89B2032001F0A8
S1130E2093F86D1CDAE7641CD4E7FE21032001F07B
S1130E308BF80121032001F087F831BD10B582B091
S1130E400024DFF868060068002805D5DFF85C0692
S1130E5000684042040003E0DFF850060068040024
S1130E604FF47A7094FBF0F030308DF80000642079
S1130E7094FBF0F030308DF801000A2094FBF0F080
S1130E800A2190FBF1F201FB120030308DF80200D0
S1130E900A2094FBF0F100FB114030308DF8030080
S1130EA0DFF84C16032000F017FE00A9032000F021
S1130EB013FEDFF8FC050068002805D5DFF8F0050F
S1130EC000684042040003E0DFF8E4050068040021
S1130ED04FF47A7094FBF0F030308DF80000642009
S1130EE094FBF0F030308DF801000A2094FBF0F010
S1130EF00A2190FBF1F201FB120030308DF8020060
S1130F000A2094FBF0F100FB114030308DF803000F
S1130F10DFF8E015032000F0DFFD00A9032000F056
S1130F20DBFDD04800684FF47A7190FBF1F030306B
S1130F308DF80000CB480068642190FBF1F00A2191
S1130F4090FBF1F201FB120030308DF80100C5482E
S1130F5000680A2190FBF1F00A2190FBF1F201FBF9
S1130F60120030308DF802000A20BE490968BD4ADB
S1130F70126892FBF0F200FB121030308DF803007F
S1130F80DFF87415032000F0A7FD00A9032000F08A
S1130F90A3FD30208DF80000B3480068642190FB65
S1130FA0F1F030308DF80100AF4800680A2190FB61
S1130FB0F1F00A2190FBF1F201FB120030308DF8C0
S1130FC002000A20A8490968A74A126892FBF0F2B5
S1130FD000FB121030308DF80300DFF820150320D9
S1130FE000F07AFD00A9032000F076FD0A21032019
S1130FF000F0AAFF13BD000018492000184D30006E
S11310001001FF1FCD110000391000000C01FF1F5B
S11310106420FE431042FF1F580AFE434A42FF1F4A
S1131020540AFE43440AFE43DC00FF1FF800FF1F7E
S1131030A000FF1FE000FF1F80B5DFF8C4040068B4
S113104000280FD15C480078002803D101205A49B8
S1131050087002E00020584908700020DFF8A4144A
S11310600860A7E0DFF8A0040068002811D0DFF8CA
S11310709C040068401CDFF894140860DFF88C04BA
S11310800068082840F096800120DFF8801408608A
S113109090E0DFF878040068012813D1DFF87004C9
S11310A0006802F0C1FBDFF86C14DFF86C241268EE
S11310B051F8221003F0E2FA02F042FCDFF8501477
S11310C0086077E0DFF844040068022811D13B4847
S11310D0006802F0A9FBDFF83C14DFF83C24126836
S11310E051F8221003F0CAFA02F02AFC33490860CE
S11310F060E0DFF81804006803280DD13048016867
S1131100DFF81004DFF81024126850F8220003F00E
S1131110B5FA2B4908604DE0DFF8F00300680428B5
S11311200DD128480168DFF8EC03DFF8EC231268DE
S113113050F8220003F0A2FA224908603AE0DFF8EE
S1131140CC03006805280DD11F480168DFF8C403EB
S1131150DFF8C423126850F8220003F08FFA1A490A
S1131160086027E0DFF8A403006806280DD137489B
S11311700168DFF8A003DFF8A023126850F822000A
S113118003F07CFA3149086014E0DFF8800300685A
S113119007280FD1DFF880030068401CDFF87813BC
S11311A00860DFF874030068062803D10020DFF824
S11311B06813086001BD00004842FF1FFC00FF1FC8
S11311C0BC00FF1FC400FF1FD000FF1F38B50DF186
S11311D0020200A9012001F02BFABDF900004042EF
S11311E0DFF838130860DFF83403006802F01CFBF2
S11311F05FF0884103F0B2F9DFF8241303F042F9F9
S1131200DFF8201303F0AAF903F07AFADFF81823C1
S1131210DFF8183303F09CFA0022DFF8143303F0EC
S113122097FA04000D00DFF80C03006803F062FB7A
S113123002000B002000290003F072FB03F094FC71
S113124009490860012001F003FA31BDD400FF1FF1
S11312501442FF1FE400FF1F0801FF1F5C0AFE4346
S1131260500AFE431842FF1F2042FF1F4942FF1F3E
S11312704810FE432C42FF1F1C01FF1F1401FF1FD7
S11312802801FF1F1801FF1F4B42FF1F10B500F07C
S1131290CDF90123DFF8A0220021002000F0A9FAF3
S11312A09A48006801280CD100231C009848006863
S11312B002F0BAFA020023000021182000F0AFFA6D
S11312C00BE001231C009248006802F0ADFA020012
S11312D023000021182000F0A2FA0123974A0021DC
S11312E0402000F086FA8948006802280CD10023C7
S11312F01C009348006802F097FA020023000021C2
S1131300582000F08CFA0BE001231C008C48006884
S113131002F08AFA020023000021582000F07FFA2C
S11313200123884A0D21002000F063FA7748006801
S113133003280DD100231C0083480168834803F06F
S11313409DF9020023000D211E2000F068FA0CE034
S113135001231C007C4801687C4803F08FF90200DB
S113136023000D211E2000F05AFA0123784A1A2185
S1131370002000F03EFA6548006804280DD10023DF
S11313801C0074480168714803F078F902002300D6
S11313901A211E2000F043FA0CE001231C006D48C2
S11313A001686A4803F06AF9020023001A211E202A
S11313B000F035FA0123684A0D21402000F019FAA3
S11313C05248006805280DD100231C0063480168B9
S11313D05E4803F053F9020023000D215E2000F063
S11313E01EFA0CE001231C005C480168574803F016
S11313F045F9020023000D215E2000F010FA0123BC
S1131400574A1A21402000F0F4F9404800680628A1
S11314100DD100231C00534801684C4803F02EF9F9
S1131420020023001A215E2000F0F9F90CE00123E8
S11314301C004C480168454803F020F902002300D1
S11314401A215E2000F0EBF90123474A2D210020E8
S113145000F0CFF92D480068072810D100231C00A4
S11314602C482D49096850F82110384803F006F932
S1131470020023002D21242000F0D1F90FE00123E4
S11314801C0024482449096850F821102F4803F00F
S1131490F5F8020023002D21242000F0C0F900F00B
S11314A097F810BDCC40FF1F0041FF1F2442FF1FCF
S11314B02842FF1F8841FF1F0401FF1F0001FF1F77
S11314C0F000FF1FF400FF1F3441FF1FE800FF1F5F
S11314D0EC00FF1F6841FF1FB800FF1FC000FF1F83
S11314E0D800FF1FC800FF1FCC00FF1F3842FF1F9A
S11314F0A4600000AC600000B460000084600000E0
S1131500580AFE431042FF1F540AFE43DC00FF1F2B
S1131510F800FF1FA000FF1FE000FF1F1C42FF1F79
S1131520000020420000D242CDCCCCCCCC4C314087
S113153080842E411001FF1FBC600000C4600000C5
S1131540FC00FF1FCC600000BC00FF1F0000204116
S1131550D4600000C400FF1FDC600000D000FF1F47
S1131560E4600000D400FF1FEC600000002800D5F8
S11315704042704710B4C9B2DFF8D4341960002374
S1131580DFF8D044236000231A00D2B2082A15DA07
S11315900023DFF8C4442360030604D50123DFF8E5
S11315A0BC44236003E00023DFF8B044236001233C
S11315B0DFF8A44423604000521CE6E70123DFF86F
S11315C0944423600123DFF88844236010BC7047EF
S11315D070B500200400E4B2082C26DA0021B4F12E
S11315E05000C0B2FFF7C6FF00210220FFF7C2FF80
S11315F000211020FFF7BEFF00200500EDB2802D72
S113160011DA0121DFF85804EDB26A1C802392FB41
S1131610F3F606FB132610EBC600E4B2205CFFF7DA
S1131620A9FF6D1CEAE7641CD5E770BD38B500203E
S11316300400E4B2082C10DA00200500EDB2802D7D
S113164009DADFF81C04EDB210EBC500E4B20021A6
S113165021546D1CF2E7641CEBE7FFF7B9FF31BDC1
S1131660F0B40025C0B2802802DAC9B2402900DBF8
S113167034E0C9B2082691FBF6F6D6F1070633002A
S1131680C9B2082691FBF6F707FB16173C000126A2
S1131690D4F10707BE403500D2B2002A0FD0DFF8DC
S11316A0C063C0B216EBC006DBB2DFF8B473C0B2DD
S11316B017EBC007DBB2DF5D2F439F550EE0DFF869
S11316C0A063C0B216EBC006DBB2DFF89473C0B2FD
S11316D017EBC007DBB2DF5DAF439F55F0BC70472B
S11316E02DE9F04705000E0017009846089CA9460E
S11316F0FFB25FFA89F94F4514D3B2465FFA88F80E
S11317005FFA8AFAD0450AD32200D2B25146C9B24E
S11317104846C0B2FFF7A4FF1AF1010AEEE719F137
S11317200109E5E7FFF754FFBDE8F0872DE9F84F1D
S113173005000E00170098460A9C8DF80060203FB3
S1131740002082465FFA8AFA5FFA88F8C2454ED2D0
S11317505FFA88F8B8F10C0F0AD1C248FFB20C2125
S113176001FB07005FFA8AFA1AF80000814608E0D4
S1131770BD48FFB210EB07105FFA8AFA1AF80000AE
S11317808146002083465FFA8BFBBBF1080F2BDAFE
S11317905FEA096008D52200D2B23100C9B228003C
S11317A0C0B2FFF75DFF0CE0E4B2002C01D10122CE
S11317B000E00022D2B23100C9B22800C0B2FFF763
S11317C04FFF5FEA4909761CF6B29DF80000301A13
S11317D05FFA88F8404504D19DF8000006006D1CAE
S11317E002E01BF1010BCEE71AF1010AAAE7BDE8FA
S11317F0F18FF8B504000D0016001F0030780028A2
S11318000CD0FFB200970C2332782900C9B2200013
S1131810C0B2FFF78BFFA41D761CEFE7F1BD2DE9E5
S1131820F04784B004000D0016001F0000A80A2130
S113183003F0C0F95FF000098C48310002F022FE89
S113184002F07EF882461FFA8AFABAF1000F07D036
S11318501FFA8AFA0A209AFBF0FA19F10109F2E751
S113186019F10109002000A95FFA89F909F80100BA
S11318707E48310002F006FE02F062F88246B9F1B9
S1131880010080461FFA8AFABAF1000F24D01FFA29
S11318908AFA0A209AFBF0F100FB11A0303000A96B
S11318A05FFA88F808F80100B8F101081FFA8AFA0B
S11318B00A209AFBF0FA5FFA88F85FFA89F9B9F11D
S11318C003008045DED12E2000A95FFA88F808F8CD
S11318D00100B8F10108D5E73B00DBB200AA2900FA
S11318E0C9B22000C0B2FFF784FFBDE8FF87002320
S11318F01800B0F57A7F0FD200231900C9B2C829A5
S113190008DA00231A00D2B2C82A01DA521CFAE714
S1131910491CF3E7401CECE7704780B504220C2116
S1131920002001F04EFE04220D21002001F049FEAA
S113193004220E21002001F044FE04220F21002085
S113194001F03FFE04221021002001F03AFE0120A4
S113195041490860002046490860FFF7C8FF01209C
S1131960434908600021AE20FFF704FE0021D52082
S1131970FFF700FE00215020FFF7FCFD0021A82006
S1131980FFF7F8FD00213F20FFF7F4FD0021D320ED
S1131990FFF7F0FD00210020FFF7ECFD00214020BF
S11319A0FFF7E8FD00218D20FFF7E4FD002114205E
S11319B0FFF7E0FD00212020FFF7DCFD00210220DD
S11319C0FFF7D8FD0021A120FFF7D4FD0021C0209E
S11319D0FFF7D0FD0021DA20FFF7CCFD0021122013
S11319E0FFF7C8FD00218120FFF7C4FD0021EF208F
S11319F0FFF7C0FD0021D920FFF7BCFD0021F12035
S1131A00FFF7B8FD0021DB20FFF7B4FD00213020F3
S1131A10FFF7B0FD0021A420FFF7ACFD0021A620B4
S1131A20FFF7A8FD0021AF20FFF7A4FDFFF7FEFD9F
S1131A300123104A00210020FFF7DBFEFFF7C8FD59
S1131A4000200D49086001200C49086001BD000018
S1131A503400FE433000FE433C00FE434000FE439E
S1131A608C3CFF1F6C5900007C5300000000C842EE
S1131A703800FE43F46000001010FE431410FE43CF
S1131A8038B504000D002878002806D0297889B2DA
S1131A90200000F059FA6D1CF5E731BDF8B50400DB
S1131AA00D00B4FBF5F0002806D0B4FBF5F00600F9
S1131AB029003000FFF7F2FFB4FBF5F005FB1040FE
S1131AC00700DFF848060068395C89B2DFF8380699
S1131AD0007800F039FAF1BD0EB478B5040006AE12
S1131AE0059800780599491C05910500C0B2252880
S1131AF00BD0EDB2002D01D100202EE0EDB2290073
S1131B0089B2200000F020FAEAE705980078050081
S1131B100598401C0590EDB2642D02D0EDB26C2DF9
S1131B2003D10A213068FFF7B9FFEDB26F2D02D05F
S1131B30EDB2782D08D1EDB26F2D01D1082100E06E
S1131B4010213068FFF7AAFFEDB2732D03D131687D
S1131B502000FFF795FF361DC2E772BC5DF810FB4D
S1131B60F8B50400012000F0FDFA070020790028F0
S1131B7002D02079012803D1002000F0F3FA0700F5
S1131B802760DFF88C0521790C2202FB0100006834
S1131B900068DFF87C1522790C2303FB02114968E5
S1131BA00843DFF86C1522790C2303FB0211096842
S1131BB00860DFF86005217950F82100DFF854153A
S1131BC0227951F82210C97811F0F301C17020680C
S1131BD0A1680901B0FBF1F0050020684001A1688B
S1131BE00901B0FBF1F0ADB26901401A0600DFF85B
S1131BF02405217950F82100007810F0E000DFF886
S1131C001415227951F822100870DFF8080521799B
S1131C1050F821004078DFF8FC14227951F82210A2
S1131C2000224A70DFF8EC14227951F82210DFF810
S1131C30E424237952F82320927A12F0E0028A7283
S1131C40DFF8D014227951F822100978ADB22A0AAB
S1131C5012F01F021143DFF8BC24237952F8232029
S1131C601170DFF8B014227951F822104D70DFF8AA
S1131C70A414227951F82210DFF89824237952F819
S1131C802320927A16F01F031A438A72217B0029BB
S1131C9004D002291FD003293AD056E0DFF8740497
S1131CA0217950F82100DFF86C14227951F82210C0
S1131CB0897811F0FD018170DFF85804217950F81A
S1131CC02100DFF85014227951F82210897811F09C
S1131CD0EF01817039E0DFF83C04217950F82100EC
S1131CE0DFF83014227951F82210897851F002017A
S1131CF08170DFF82004217950F82100DFF81414F2
S1131D00227951F82210897811F0FE0181701CE0CB
S1131D10DFF80004217950F82100DFF8F813227964
S1131D2051F82210897851F002018170DFF8E40340
S1131D30217950F82100DFF8DC13227951F82210C0
S1131D40897851F001018170FFE7607B002802D09F
S1131D50012842D083E0DFF8BC03217950F8210048
S1131D60807880071CD5DFF8AC03217950F8210076
S1131D70DFF8A013227951F82210897851F010016C
S1131D808170DFF89003217950F82100DFF8841383
S1131D90227951F82210897A11F0DF0181721BE057
S1131DA0DFF87003217950F82100DFF868132279F5
S1131DB051F82210897811F0EF018170DFF8540393
S1131DC0217950F82100DFF84C13227951F82210C0
S1131DD0897A11F0DF01817241E0DFF8380321795B
S1131DE050F82100807880071CD5DFF8280321797A
S1131DF050F82100DFF81C13227951F82210897859
S1131E0051F010018170DFF80C03217950F82100A2
S1131E10DFF80013227951F82210897A51F0200159
S1131E2081721BE0DFF8EC02217950F82100DFF821
S1131E30E412227951F82210897851F0100181704E
S1131E40DFF8D002217950F82100DFF8C812227996
S1131E5051F82210897A11F0DF018172FFE7DFF86F
S1131E60B402217950F82100DFF8A812227951F840
S1131E702210497911F0DF014171DFF898022179CC
S1131E8050F82100DFF88C12227951F82210C97819
S1131E9051F00C01C170DFF880020078002803D0F3
S1131EA02079DFF8641208700020DFF86C120870E3
S1131EB0F1BDC9B200290DD0DFF8582252F8202014
S1131EC0127C52F08002DFF84C3253F820301A743E
S1131ED0D2B20CE0DFF83C2252F82020127C12F03F
S1131EE07F02DFF8303253F820301A74D2B27047D0
S1131EF0C9B200290DD0DFF81C2252F82020127C30
S1131F0052F00802DFF80C3253F820301A74D2B2BF
S1131F100CE0DFF8002252F82020127C12F0F702C5
S1131F20DFF8F03153F820301A74D2B27047DFF87A
S1131F30EC11DFF8E02152F82000007CC0F302101D
S1131F40C0B251F82000704770B504000D00DFF8EE
S1131F50C40150F82400007C00060BD5DFF8B4015E
S1131F6050F82400067D2000FFF7E1FFF6B2864218
S1131F7007D3F3E7DFF89C0150F82400007900064A
S1131F80F8D5DFF8900150F82400C571ADB2280AE5
S1131F9010F00100C0B200280DD0DFF8781151F81C
S1131FA02410897951F04001DFF8682152F8242087
S1131FB09171C9B20CE0DFF85C1151F824108979F1
S1131FC011F0BF01DFF84C2152F824209171C9B2FD
S1131FD070BD71B585B00C0005AE0294307810F078
S1131FE007008DF8040000208DF80C0000208DF807
S1131FF00D00002005003068C0F38430EDB2C0B29B
S1132000854210D23068800910F007023068400A17
S113201010F01F002918C9B23068C0F3C20001F0E3
S113202067F96D1CE7E700A8FFF79AFD00213078F7
S113203010F00700FFF73DFF0021307810F0070093
S1132040FFF756FF307810F0070006B070BD1CB5DE
S11320500400304850F824000079000615D52D48B6
S113206050F82400C07800060FD52D4850F82400FD
S1132070002804D000A82A4951F824108847BDF844
S11320800000244951F82410C871224850F8240053
S11320900079800616D51F4850F82400C0788006C1
S11320A010D51C4850F82400C079ADF800001D4834
S11320B050F82400002805D0BDF80000194951F853
S11320C024108847134850F824000079000704D5E9
S11320D0104850F82400C07901900E4850F82400AC
S11320E00079C0060FD50B4850F82400C079019040
S11320F00C4850F82400002805D04FF6FF70094919
S113210051F82410884713BD4C42FF1F2401FF1FC0
S1132110805E0000F45F00002901FF1F945F00004F
S1132120A841FF1FC041FF1F80B50020FFF78FFFAC
S113213001BD80B50120FFF78AFF01BD80B50220F3
S1132140FFF785FF01BD80B50320FFF780FF01BDC8
S113215080B50420FFF77BFF01BD80B50520FFF7A4
S113216076FF01BD38B50400002502F081FD2D483D
S113217000682D490968090F491C48430500E4B269
S11321802000002806D001280BD0032811D00428F1
S113219017D017E024480068000F401CB5FBF0F589
S11321A012E021480068C0F30360401CB5FBF0F561
S11321B00AE01D480068C0F30340401CB5FBF0F57D
S11321C002E001E000200500280032BD1748006845
S11321D050F08070154908601548006850F00100FF
S11321E013490860704730B4124C246821000D4C28
S11321F02468114DB4FBF5F404FB00F423005C18CF
S11322002200914204D20B4C2468944208D2FAE78B
S1132210084C2468A242FBD3064C24689442FBD3A6
S113222030BC70472001FF1F44800440FCED00E0F7
S1132230001000E0041000E040420F0010B504005C
S11322404FF47A7000FB04F0FFF7CDFF10BD80B5AA
S1132250FFF7BCFF01BD10B504002000FFF7EEFF3F
S113226010BD704780B5FFF7FCFF01BD10B58CB001
S113227001220621022001F0A4F96149022001F0A3
S11322806FFA002304220621022001F0AAF9022297
S11322900721022001F095F95949022001F060FA62
S11322A0002304220721022001F09BF902220221CB
S11322B0022001F086F9002300220221022001F00D
S11322C090F901220821022001F07BF90122092161
S11322D0022001F076F901220A21022001F071F9AD
S11322E001220B21022001F06CF901220C210220B1
S11322F001F067F901220D21022001F062F90122A7
S11323000E21022001F05DF901220F21022001F0CB
S113231058F9012304220621022001F062F9012365
S113232004220721022001F05CF90123002202218A
S1132330022001F056F900A8302102F069FD0020C6
S11323408DF8000033208DF8010000208DF8060080
S11323500120ADF802009820ADF80400294803904C
S1132360002005900020029000208DF8100000202D
S11323708DF8180000200A900120079000208DF8A5
S1132380240000208DF82C0000A802F045FD002058
S113239002F056FE002404220021022001F011F96B
S11323A004220321022001F00CF9E4B2002C06D12E
S11323B02421142002F0C4FE00190400F5E7E4B25D
S11323C0012C06D12021242002F0BAFE00190400B9
S11323D0F5E7E4B2022C06D1C121702002F0B0FE70
S11323E000190400F5E7E4B2032C06D1A02106206D
S11323F002F0A6FE00190400F5E70CB010BD00BF02
S1132400E15D000091F00F4030B4DFF8443C0C244F
S113241004FB00331B681B68DFF8344C0C2505FBF8
S1132420004464682343DFF8284C0C2505FB004472
S1132430246823600023DFF81C4C54F820402360F8
S1132440DFF8103C53F820305B6D53F00403DFF8E1
S1132450044C54F8204063650023DFF8F84B54F82B
S1132460204063600023DFF8EC4B54F82040E36421
S1132470DFF8E03B53F8203099605FF0FF33DFF87A
S1132480D44B54F82040C4F8983030BC7047F1B5B0
S11324900C00150000AF04224FF6FF71387810F0DD
S11324A00700FFF7B1FF05220021387810F007007C
S11324B000F06AF9E4B2002C02D0012C29D051E0DA
S11324C0DFF8900B397811F0070150F82100DFF89C
S11324D0841B3A7812F0070251F82210D1F88010C8
S11324E031F02001C0F88010DFF8680B397811F062
S11324F0070150F82100DFF85C1B3A7812F007025C
S113250051F82210D1F8801031F01001C0F8801079
S113251028E0DFF8400B397811F0070150F821006A
S1132520DFF8301B3A7812F0070251F82210D1F884
S1132530801051F02001C0F88010DFF8180B3978B2
S113254011F0070150F82100DFF8081B3A7812F067
S1132550070251F82210D1F8801051F01001C0F890
S11325608010FFE7EDB2002D02D0012D15D029E037
S1132570DFF8E00A397811F0070150F82100DFF89C
S1132580D41A3A7812F0070251F82210D1F88010C8
S113259031F00801C0F8801014E0DFF8B80A397887
S11325A011F0070150F82100DFF8A81A3A7812F068
S11325B0070251F82210D1F8801051F00801C0F838
S11325C08010FFE7002006003868C0F38430F6B2BC
S11325D0C0B2864228D23868800910F007023868F1
S11325E0400A10F01F003118C9B23868C0F3C200A5
S11325F000F07EFE01223868400A10F01F003118F6
S1132600C9B23868C0F3C20000F0A3FE01223868E2
S1132610400A10F01F003118C9B23868C0F3C20074
S113262000F0FFFE761CCFE7387810F00700F2BD0B
S1132630DFF8A03A53F82030D3F88030C3F3800396
S11326401370DFF8903A53F820305B680B807047C2
S11326500021DFF8802A52F82020516070470100E1
S1132660C9B2002902D0C9B2012901D1002010E069
S1132670C9B2022902D0C9B2032901D1012008E05C
S1132680C9B2042902D0C9B2052901D1022000E04F
S1132690032070472DE9F84304000D0016001F00C5
S11326A05FF00008F6B2002E08D0022E1ED011D31F
S11326B0042E33D026D3052E3CD047E05FF0010929
S11326C02800C0B2FFF7CBFFC0B2C00019FA00F077
S11326D080463BE05FF002092800C0B2FFF7BFFF6D
S11326E0C0B2C00019FA00F080462FE05FF0040980
S11326F02800C0B2FFF7B3FFC0B2C00019FA00F05F
S1132700804623E05FF010092800C0B2FFF7A7FF5E
S1132710C0B2C00019FA00F0804617E05FF020094B
S11327202800C0B2FFF79BFFC0B2C00019FA00F046
S113273080460BE05FF040092800C0B2FFF78FFF2E
S1132740C0B2C00019FA00F08046FFE7FFB2012FC3
S11327500CD1DFF8000950F82400406E58EA00005C
S1132760DFF8F01851F8241048660BE0DFF8E408AD
S113277050F82400406E30EA0800DFF8D81851F809
S113278024104866BDE8F18370B504000D001600FE
S1132790F6B2002E0CD0022E00F0AE8171D3042EBE
S11327A000F0C080C0F02181052E00F02C8287E269
S11327B0DFF8A00850F82400406D40084000DFF81E
S11327C0941851F824104865DFF8880850F824005C
S11327D0D0F8800040084000DFF8781851F8241041
S11327E0C1F88000DFF86C0850F82400006830F06D
S11327F02000DFF8601851F824100860DFF854084E
S113280050F82400EDB210EBC500DFF8481851F879
S11328102410EDB211EBC501C96851F03001C1605B
S113282000222900C9B2200000F04BFA0023002244
S11328302900C9B22000FFF72DFF0023012229003F
S1132840C9B22000FFF726FF002302222900C9B2E3
S11328502000FFF71FFF002303222900C9B2200034
S1132860FFF718FF002304222900C9B22000FFF754
S113287011FF002305222900C9B22000FFF70AFF37
S11328801EE2DFF8D00750F82400406D40084000F5
S1132890DFF8C01751F824104865DFF8B80750F87E
S11328A02400D0F8800040084000DFF8A81751F851
S11328B02410C1F88000DFF89C0750F82400006859
S11328C050F02000DFF88C1751F824100860002322
S11328D000222900C9B22000FFF7DCFE00230122F8
S11328E02900C9B22000FFF7D5FE002302222900E7
S11328F0C9B22000FFF7CEFE002303222900C9B28B
S11329002000FFF7C7FE002304222900C9B22000DB
S1132910FFF7C0FE002305222900C9B22000FFF7FB
S1132920B9FECDE1DFF82C0750F82400D0F8800080
S113293040084000DFF81C1751F82410C1F880004B
S1132940DFF8100750F82400406D40084000DFF81D
S1132950041751F824104865DFF8F80650F82400ED
S1132960006830F02000DFF8EC1651F824100860FD
S1132970DFF8E00650F82400EDB210EBC500DFF8F4
S1132980D41651F82410EDB211EBC501C96831F029
S11329903001C160002300222900C9B22000FFF7E2
S11329A079FE002301222900C9B22000FFF772FE3C
S11329B0002302222900C9B22000FFF76BFE002386
S11329C003222900C9B22000FFF764FE0023042279
S11329D02900C9B22000FFF75DFE0023052229006B
S11329E0C9B22000FFF756FE6AE1DFF8680650F826
S11329F02400D0F8800040084000DFF8581651F851
S1132A002410C1F88000DFF84C0650F82400006858
S1132A1030F02000DFF83C1651F824100860DFF88D
S1132A20340650F82400406D50F00400DFF82416FA
S1132A3051F824104865DFF81C0650F82400406D56
S1132A4050F00100DFF80C1651F8241048650123FA
S1132A5000222900C9B22000FFF71CFE0123012235
S1132A602900C9B22000FFF715FE00230222290025
S1132A70C9B22000FFF70EFE002303222900C9B2C9
S1132A802000FFF707FE012304222900C9B2200019
S1132A90FFF700FE002305222900C9B22000FFF73A
S1132AA0F9FDDFF8B00550F82400EDB210EBC500D5
S1132AB0DFF8A01551F82410EDB211EBC501C96877
S1132AC051F03001C16000222900C9B2200000F099
S1132AD0F8F80320DFF87C1551F824108865DFF836
S1132AE0740550F82400806D50F08000DFF8641500
S1132AF051F824108865E3E0DFF8580550F8240005
S1132B00D0F8800040084000DFF8481551F8241040
S1132B10C1F88000DFF83C0550F82400006830F06C
S1132B202000DFF8301551F824100860DFF8240580
S1132B3050F82400406D50F00400DFF8181551F8E7
S1132B4024104865DFF80C0550F82400406D50F05F
S1132B500100DFF8001551F8241048650123002214
S1132B602900C9B22000FFF795FD002301222900A6
S1132B70C9B22000FFF78EFD002302222900C9B24A
S1132B802000FFF787FD002303222900C9B220009B
S1132B90FFF780FD012304222900C9B22000FFF7BA
S1132BA079FD002305222900C9B22000FFF772FD38
S1132BB0DFF8A00450F82400EDB210EBC500DFF8F4
S1132BC0941451F82410EDB211EBC501C96851F009
S1132BD03001C16000222900C9B2200000F071F860
S1132BE00320DFF8701451F824108865DFF86404BA
S1132BF050F82400806D50F08000DFF8581451F82C
S1132C00241088655CE0DFF84C0450F82400D0F808
S1132C10800050F00100DFF83C1451F82410C1F892
S1132C208000DFF8300450F82400006830F0200001
S1132C30DFF8201451F824100860DFF8180450F865
S1132C402400406D50F00400DFF8081451F82410FB
S1132C504865DFF8000450F82400406D50F001008E
S1132C60DFF8F01351F824104865012300222900ED
S1132C70C9B22000FFF70EFD002301222900C9B2CA
S1132C802000FFF707FD002302222900C9B220001B
S1132C90FFF700FD002303222900C9B22000FFF73B
S1132CA0F9FC002304222900C9B22000FFF7F2FC3A
S1132CB0002305222900C9B22000FFF7EBFCFFE73F
S1132CC070BD10B4002A02D0012A25D049E0DFF8F3
S1132CD0843353F82030C9B213EBC103DFF87443D3
S1132CE054F82040C9B214EBC104E46834F004047D
S1132CF0DC60DFF8603353F82030C9B213EBC10352
S1132D00DFF8504354F82040C9B214EBC104E4681E
S1132D1054F00804DC6024E0DFF8383353F8203042
S1132D20C9B213EBC103DFF82C4354F82040C9B2F5
S1132D3014EBC104E46854F00404DC60DFF81433D9
S1132D4053F82030C9B213EBC103DFF8084354F839
S1132D502040C9B214EBC104E46834F00804DC6018
S1132D60FFE710BC70472DE9F14F82B00C0015004D
S1132D701E005FF000080DF1080900208246D9F812
S1132D800000C0F384305FFA8AFAC0B2824515D2DB
S1132D90D9F80000800910F00702D9F80000400AB1
S1132DA010F01F001AEB0001C9B2D9F80000C0F3FB
S1132DB0C20000F09DFA1AF1010AE0E74FF6FF7B2A
S1132DC00120FFF7CFF900900098B0FBF5F04FF623
S1132DD0FF71B0FBF1F007000098B0FBF5F0B0FB19
S1132DE0F7F0B0F5803F00D37F1C002082465FFAE5
S1132DF08AFABAF1070F25DA012010FA0AF0381A14
S1132E00002804D5012010FA0AF0C01B03E00120B9
S1132E1010FA0AF0381A584511D2D046012010FA97
S1132E200AF0381A002805D5012010FA0AF0B0EB90
S1132E30070B04E0012010FA0AF0B7EB000B1AF1BB
S1132E40010AD4E7012010FA08F0B84201DA18F1B7
S1132E5001085FFA88F8B8F1080F01DB0720804603
S1132E600098012111FA08F1B0FBF1F0B0FBF5F084
S1132E70401E01904246D2B2019999F8000010F028
S1132E800700FFF7C1FAE4B2002C03D0022C1BD0D8
S1132E900DD326E00022D9F80000C00C10F01F0169
S1132EA099F8000010F00700FFF76EFC19E0022209
S1132EB0D9F80000C00C10F01F0199F8000010F0C0
S1132EC00700FFF761FC0CE00322D9F80000C00CF6
S1132ED010F01F0199F8000010F00700FFF754FCF0
S1132EE0FFE73200D9F80000C00C10F01F0199F878
S1132EF0000010F0070000F059F8DFF8D80199F845
S1132F00001011F0070150F82100006830F018009B
S1132F10DFF8C01199F8002012F0070251F82210CE
S1132F200860DFF8B00199F8001011F0070150F8BB
S1132F302100006850F00800DFF8981199F800208B
S1132F4012F0070251F822100860DFF8880199F89E
S1132F50001011F0070150F821000068C008C000FB
S1132F60DFF8701199F8002012F0070251F82210CE
S1132F700860DFF8600199F8001011F0070150F8BB
S1132F80210000685FFA88F818F007010843DFF8A9
S1132F90441199F8002012F0070251F82210086039
S1132FA099F8000010F00700BDE8FE8F30B4DFF898
S1132FB0243153F820309B68534342F21074B3FB1E
S1132FC0F4F3DFF8104154F82040646E14F0013F2C
S1132FD033D0C9B2022491FBF4F505FB1415002D7E
S1132FE011D0DFF8F04054F82040C9B214EBC1040A
S1132FF00025A560DFF8DC4054F82040C9B214EB8A
S1133000C104236110E0DFF8CC4054F82040C9B279
S113301014EBC10400252561DFF8B84054F82040C2
S1133020C9B214EBC104A3615FF0FF34DFF8A4500C
S113303055F82050C5F8984007E0DFF8984054F858
S11330402040C9B214EBC104236130BC70470000B6
S11330504C5F00006C60000038B504001E4850F856
S11330602400002803D01C4850F824008047194845
S113307050F82400006810F0C00F09D0154850F82B
S11330802400006830F08000124951F824100860D0
S113309000200500114850F82400854218D20D483C
S11330A050F8240010EBC500C06810F0C00F0DD01C
S11330B0084850F8240010EBC500064951F82410C4
S11330C011EBC501C96831F08001C1606D1CE1E7F5
S11330D031BD00006C600000FC41FF1F78600000FF
S11330E080B50020FFF7B8FF01BD80B50120FFF7D0
S11330F0B3FF01BD80B50220FFF7AEFF01BD10B4E0
S113310050F8041B81B102681218001D50F8043BEA
S1133110DC0744BFA9F10104E31852F8044B43F857
S1133120044B091FF9D1EBE710BC7047012110F0E3
S11331301F029140514A40B2430942F8231070479C
S113314010B504004E48006850F400004C49086073
S11331500120FFF707F84B4908604A4800684A49CC
S1133160B0FBF1F04749086046480068616848438D
S113317046492278120150504448217810EB01103E
S1133180806850F001004149227811EB02118860F7
S11331903F48006830F002003D49086010BD30B57A
S11331A083B004000D008DF80040019500A8FFF7DE
S11331B0C7FF37BD70B504000D0016003048006825
S11331C050F400002E490860F6B2002E04D03148B5
S11331D0E4B22056FFF7AAFFF6B2002E0CD02B481B
S11331E0E4B210EB0410806850F002002749E4B206
S11331F011EB041188600BE02448E4B210EB0410D6
S1133200806830F002002149E4B211EB04118860B7
S1133210F6B2002E0BD11D48E4B210EB0410C068C6
S113322050F001001949E4B211EB0411C86070BDFB
S1133230134A126852F40002114B1A600A00002A61
S113324003D0154AC0B242F82010704710B50400EC
S11332500E4810EB0410C06850F001000B4911EB4C
S11332600411C8600C4850F82400002803D00A4810
S113327050F82400804710BD0000000000E100E089
S11332803C8004403042FF1F40420F000071034065
S11332900070034000610000EC41FF1F80B5002076
S11332A0FFF7D4FF01BD80B50120FFF7CFFF01BDBB
S11332B080B50220FFF7CAFF01BD80B50320FFF7E8
S11332C0C5FF01BD012110F01F029140DFF8E42485
S11332D040B2430942F823107047012110F01F0245
S11332E09140DFF8D42440B2430942F823107047D8
S11332F030B4DFF8C8341B68DFF8C44454F8204005
S11333002343DFF8B8442360DFF8B83453F820309F
S1133310C9B2DFF8B04454F82040C9B254F821408F
S113332034F4E06443F82140DFF8983453F8203053
S1133330C9B2DFF8904454F82040C9B254F821408F
S1133340D2B2150215F4E0652C4343F8214030BC99
S1133350704710B4DFF864341B68DFF8644454F831
S113336020402343DFF854442360D2B2002A03D020
S1133370022A33D011D352E0DFF8483453F8203016
S1133380C9B2DFF8404454F82040C9B254F821408F
S113339034F0020443F8214041E0DFF8283453F8C4
S11333A02030C9B2DFF81C4454F82040C9B254F8A4
S11333B0214054F0020443F82140DFF8083453F864
S11333C02030C9B2DFF8FC4354F82040C9B254F8A5
S11333D0214054F0010443F8214020E0DFF8E433B5
S11333E053F82030C9B2DFF8DC4354F82040C9B2A6
S11333F054F8214054F0020443F82140DFF8C43368
S113340053F82030C9B2DFF8BC4354F82040C9B2A5
S113341054F821406408640043F82140FFE710BCDD
S1133420704710B4DFF894331B68DFF8944354F802
S113343020402343DFF884432360D2B2002A10D013
S1133440DFF8803353F82030C9B253F8213053F0F9
S11334502003DFF8704354F82040C9B244F8213007
S11334600FE0DFF8603353F82030C9B253F821304D
S113347033F02003DFF84C4354F82040C9B244F839
S1133480213010BC704710B4DFF830331B68DFF80C
S1133490304354F820402343DFF820432360D2B262
S11334A0012A0DD1DFF8203353F820305B69012461
S11334B08C402343DFF8104354F8204063610CE050
S11334C0DFF8043353F820305B6901248C40A343B4
S11334D0DFF8F44254F82040636110BC704710B523
S11334E004006078002806D002282AD016D30428C5
S11334F04DD039D35EE000226168C9B22078FFF76D
S113350028FF00226168C9B22078FFF78AFF0022F1
S11335106168C9B22078FFF7B6FF4BE00222616808
S1133520C9B22078FFF715FF00226168C9B220787C
S1133530FFF777FF00226168C9B22078FFF7A3FF85
S113354038E001226168C9B22078FFF702FF002247
S11335506168C9B22078FFF764FF00226168C9B2CC
S11335602078FFF790FF25E001226168C9B2207836
S1133570FFF7EFFE01226168C9B22078FFF751FF1F
S113358001226168C9B22078FFF77DFF12E00022B2
S11335906168C9B22078FFF7DCFE00226168C9B215
S11335A02078FFF73EFF01226168C9B22078FFF757
S11335B06AFFFFE701226168C9B22078FFF798FE2D
S11335C010BD7CB504000D00160020008DF800002D
S11335D08DF80160019500A8FFF781FF2000C0B2BB
S11335E076BDF8B504000D0016001F00734800688E
S11335F0734951F82410084370490860714850F821
S11336002400EDB26F4951F82410EDB251F82510A1
S113361031F4702140F82510FFB2002F04D16B481B
S11336202056FFF75AFE9AE0F6B2002E0BD0022E77
S113363027D017D3042E46D032D3062E69D055D3C3
S1133640072E79D08BE05F4850F82400EDB25D4935
S113365051F82410EDB251F8251051F4803140F89E
S113366025107CE0574850F82400EDB2554951F834
S11336702410EDB251F8251051F4003140F8251012
S11336806DE0504850F82400EDB24E4951F8241032
S1133690EDB251F8251051F4403140F825105EE0A8
S11336A0484850F82400EDB2464951F82410EDB2D0
S11336B051F8251051F4002140F8251043482056B4
S11336C0FFF700FE4BE03F4850F82400EDB23D49BF
S11336D051F82410EDB251F8251051F4102140F89E
S11336E025103A482056FFF7EDFD38E0354850F8EC
S11336F02400EDB2334951F82410EDB251F82510ED
S113370051F4202140F8251030482056FFF7DAFD07
S113371025E02C4850F82400EDB22A4951F8241031
S1133720EDB251F8251051F4302140F82510274806
S11337302056FFF7C7FD12E0224850F82400EDB2EE
S1133740204951F82410EDB251F8251051F44021CC
S113375040F825101D482056FFF7B4FDFFE7F1BDE2
S1133760164A1268164B53F820301A43134B1A604A
S11337700A00002A02D0164A42F82010704738B5D1
S11337800400104850F82400D0F8A00005005FF0B1
S1133790FF300C4951F82410C1F8A0000C4850F82F
S11337A02400002804D02800094951F8241088472F
S11337B031BD000000E100E080E100E03880044019
S11337C034600000206000000C6000009C60000079
S11337D0D841FF1F80B50020FFF7D1FF01BD80B5A0
S11337E00120FFF7CCFF01BD80B50220FFF7C7FF22
S11337F001BD80B50320FFF7C2FF01BD80B50420E1
S1133800FFF7BDFF01BD50F8041B61B150F8042B54
S1133810D30744BFA9F101039A18002342F8043BDB
S1133820091FFAD1EFE77047002840F10780F446FA
S1133830404200F003F850F0004060470AD0B0FA6C
S113384080F18840D1F19D01C905020672F1004260
S113385041EB10207047000090EA010F44BF81F053
S1133860004100F013BF00BF431A4FF000423EBFB7
S11338705340C01AC91800BFD3095FEAD05C13EBE8
S1133880400F34BFB3EB410F40E07CEBD1530CD37A
S113389042EA012122D8D1EB402009D3400A28BFB3
S11338A05FEA500140EBCC507047401A15D04002FB
S11338B0B0FA80F2521C9040400A4FEA3C23B3EB2A
S11338C0026384BF00EB730007E040F400001A16A3
S11338D0DB07C2F10102D04018437047182BFCDC0F
S11338E031FA03F202FA03F3591A38BF42F0010223
S11338F0D2EB40203CBF4000ACF1010C5FEACC5C51
S1133900C20572F100414CEB5020704713EB400F9D
S11339100FD24B0009D0ACEBD153022B03DB49028D
S1133920172BDDDD70479143401A4300D5D10020A9
S1133930704713EB410FD0D36FF0000070470000C5
S11339404100090E7F3915D4D1F11F0114D4400070
S113395007D2C00140F00040C84048BF6FF00040AB
S11339607047C00140F00040C8404CBF4FF00040D9
S1133970404270470020704700424FF0004058BF5B
S1133980C04370472DE9F14F83B00398DFF8D01A94
S11339900860002200238DF80430002300248DF8F1
S11339A0064000248DF805400025002600275FF01E
S11339B0000C5FF0000EDFF8ACAADFF8ACBADBF85D
S11339C000B09BF800B01BF80AA0BAF1980F4ED0D3
S11339D0DFF890AADFF890BADBF800B09BF800B0EB
S11339E01BF80AA0BAF1000F41D0DFF87CAADAF87C
S11339F000A09AF800A0BAF10F0F38DADFF86CAA29
S1133A00DFF864BADBF800B09BF800B01BF80AA03A
S1133A101AF1010ACDF800A0DFF848BADFF848AA85
S1133A20DAF800A09AF800A01AF80BA0DDF800B0AC
S1133A30D34516DADFF82C8ADFF82CAADAF800A0CE
S1133A409AF800A01AF80880DFF820AADFF818BA5C
S1133A50DBF800B09BF800B01BF80AA0B8EB0A082A
S1133A6001E05FF0010818F1080A504657E0DFF85A
S1133A7000AADFF800BADBF800B09BF800B01BF82E
S1133A800AA0BAF1000F44D0DFF8E8A9DAF800A0E0
S1133A909AF800A0BAF10F0F3BDADFF8D4A9DFF8E7
S1133AA0D4B9DBF800B09BF800B01BF80AA0CDF83D
S1133AB000A0DFF8B8B9DFF8BCA9DAF800A09AF8DA
S1133AC000A01AF80BA0DDF800B01AEB0B0A0FFAED
S1133AD08AFABAF1870F02DB5FF0860815E0DFF897
S1133AE09089DFF890A9DAF800A09AF800A01AF8F3
S1133AF00880DFF878A9DFF87CB9DBF800B09BF820
S1133B0000B01BF80AA01AEB080818F1080A50467E
S1133B1005E05FF04C0AD04618F1080A5046DFF879
S1133B2050A9DFF850B9DBF800B09BF800B01BF8DF
S1133B300AA0BAF1000F44D0DFF838A9DAF800A0DF
S1133B409AF800A0BAF10F0F3BDADFF824A9DFF8E6
S1133B5024B9DBF800B09BF800B01BF80AA0CDF83C
S1133B6000A0DFF808B9DFF80CA9DAF800A09AF889
S1133B7000A01AF80BA0DDF800B01AEB0B0A0FFA3C
S1133B808AFABAF18B0F16DADFF8E498DFF8E4A8C2
S1133B90DAF800A09AF800A01AF80990DFF8CCA887
S1133BA0DFF8D0B8DBF800B09BF800B01BF80AA02F
S1133BB01AEB090901E05FF08B0919F1080A514673
S1133BC054E0DFF8A0A8DFF8A0B8DBF800B09BF859
S1133BD000B01BF80AA0BAF1980F41D0DFF888A80A
S1133BE0DAF800A09AF800A0BAF10F0F38DADFF87B
S1133BF07CA8DFF874B8DBF800B09BF800B01BF8C1
S1133C000AA01AF1050ACDF800A0DFF858B8DFF8C9
S1133C1058A8DAF800A09AF800A01AF80BA0DDF86A
S1133C2000B0D34516DADFF83C98DFF83CA8DAF8A0
S1133C3000A09AF800A01AF80990DFF830A8DFF87D
S1133C4028B8DBF800B09BF800B01BF80AA0B9EB69
S1133C500A0901E05FF0050919F1080A514605E077
S1133C605FF04C0AD14619F1080A51465FF0000A88
S1133C705246D2B2322A80F2D982DFF8FCA7DAF8AF
S1133C8000A0D2B25FF0980B0BFB02AA5446D2B24A
S1133C90002A00F09F81B2F1010B8DF804B09DF869
S1133CA004A0BAF1000F17D0D2B29DF804A0B2EB71
S1133CB00A0ABAF1050F0FDADFF8A8A79DF804B0D5
S1133CC01BF80AA0BAF1980F06D19DF804A0BAF126
S1133CD0010B8DF804B0E2E7DFF888A79DF804B083
S1133CE01BF80AA0BAF1980F00F08080DFF87CA7D7
S1133CF09DF804B01BF80AA0CDF800A0DFF864B763
S1133D009DF804A01AF80BA0DDF800B0D34545D205
S1133D10DFF85CA7D2B212EB0A0A1AF801ACBAF1C6
S1133D20000F27D0DFF83CA79DF804B01BF80AA0C9
S1133D30CDF800A0DFF834B79DF804A01AF80BA062
S1133D40DDF800B0BBEB0A0ADFF824B7D2B212EBFD
S1133D500B0B1BF801BC1BF1050BDA450ADADFF883
S1133D6010A7D2B212EB0A0A1AF801AC1AF1050A2A
S1133D70D04637E0DFF8ECA69DF804B01BF80AA0A3
S1133D80CDF800A0DFF8E4B69DF804A01AF80BA063
S1133D90DDF800B0BBEB0A0AD04623E0DFF8D0A67A
S1133DA0D2B212EB0A0A1AF801ACBAF1000F16D01B
S1133DB0DFF8BCA6D2B212EB0A0A1AF801AC1AF167
S1133DC0050ABAF1900F0ADADFF8A4A6D2B212EB10
S1133DD00A0A1AF801AC1AF1050AD04602E05FF0AB
S1133DE0010AD04618F1080A50462DE0DFF880A6F3
S1133DF0D2B212EB0A0A1AF801ACBAF1000F1DD0C4
S1133E00DFF86CA6D2B212EB0A0A1AF801AC1AF166
S1133E10050A0FFA8AFABAF1870F02DB5FF0860807
S1133E2008E0DFF84C86D2B212EB080818F8018CCF
S1133E3018F1050818F1080A504605E05FF04C0A2D
S1133E40D04618F1080A5046B2F1010A5346DBB2D3
S1133E50002B10D0D2B2DBB2B2EB030ABAF1050FD9
S1133E6009DADFF80CA6DBB213F80AA0BAF1000FE6
S1133E7001D15B1EEBE7DFF8F8A5DBB213F80AA06B
S1133E80BAF1000F7CD0DFF8E8A5DBB213F80AA082
S1133E90DFF8D8B5DBB213F80BB01BEB0A0A0FFA44
S1133EA08AFABAF18B0F41DADFF8B8A5D2B212EB75
S1133EB00A0A1AF801ACBAF1980F29D0DFF8A4A5C0
S1133EC0D2B212EB0A0A1AF801ACBAF10D0ACDF813
S1133ED000A0DFF89CA5DBB213F80AB0DFF88CA5CC
S1133EE0DBB213F80AA01AEB0B0ADDF800B00FFAE4
S1133EF08BFB0FFA8AFAD3450ADADFF868A5D2B247
S1133F0012EB0A0A1AF801ACBAF10D0AD14633E0F1
S1133F10DFF85CA5DBB213F80AA0DFF850B5DBB21A
S1133F2013F80BB01BEB0A0AD14625E0DFF834A5E1
S1133F30D2B212EB0A0A1AF801ACBAF1980F03D103
S1133F405FF08B0AD14617E0DFF818A5D2B212EB66
S1133F500A0A1AF801ACBAF10E0F0ADBDFF804A55D
S1133F60D2B212EB0A0A1AF801ACBAF10D0AD14620
S1133F7002E05FF04C0AD14619F1080A514629E0E3
S1133F80DFF8E0A4D2B212EB0A0A1AF801ACBAF1D3
S1133F90980F19D0DFF8CCA4D2B212EB0A0A1AF89F
S1133FA001ACBAF1130F09DBDFF8B894D2B212EB0B
S1133FB0090919F8019CB9F10D0901E05FF005093F
S1133FC019F1080A514605E05FF04C0AD14619F18F
S1133FD0080A51460FFA89F9B9F1010F6DDB0FFA9E
S1133FE089F9B9F1010F68DB9DF805A0BAF1000F5A
S1133FF063D10FFA89F919F804A01AF1320A09B247
S113400011F804B0DA4554DA0FFA89F919F804A062
S11340101AF1320A09B211F804B0DA4511DA0FFACA
S113402089F9B9F1010F0CDB09B211F804A0BAF156
S1134030FF0F00DA761CB9F10109491EF6B2022E0F
S1134040E2DBF6B2022E30DB19F1020B8DF808B078
S11340505FF0000A56465FF0000AD6465FF0000A99
S11340605746FFB20A2F12DADFF8F4A3DAF800A0F9
S11340700FFA89F919EB040BFFB217EB0B0B9BF842
S113408002B0DA4501DA1EF1010E7F1CE9E75FFA9E
S11340908EFEBEF1070F04DB5FF0010B8DF805B057
S11340A09DE75FF0000A564699E75FF0000A56461E
S11340B095E7B9F10109491E91E700B298286EDA33
S11340C000B298286BDA9DF806A0BAF1000F66D109
S11340D000B210F804A01AF1320A0FFA88F818F89E
S11340E004B0DA4557DA00B210F804A01AF1320A23
S11340F00FFA88F818F804B0DA4510DA00B29828F4
S11341000DDA0FFA88F818F804A0BAF1FF0F00DAF4
S11341106D1C18F10108401CEDB2022DE3DBEDB279
S1134120022D34DB8246BAF1020B8DF807B05FF042
S1134130000A55465FF0000AD6465FF0000AD446EE
S11341405FFA8CFCBCF10A0F13DADFF814A3DAF877
S113415000A000B210EB040B5FFA8CFCBBEB0C0B61
S11341601BF802BCDA4501DA1EF1010E1CF1010C48
S1134170E6E75FFA8EFEBEF1070F04DB5FF0010B8A
S11341808DF806B09CE75FF0000A554698E75FF0AB
S1134190000A554694E718F10108401C90E79DF881
S11341A006A0BAF1000F0BD05FF0000B8DF806B03B
S11341B09DF807A0DFF8ACB2D2B202F80BA006E07B
S11341C05FF0980ADFF89CB2D2B202F80BA09DF817
S11341D005A0BAF1000F0BD05FF0000B8DF805B00D
S11341E09DF808A0DFF888B2D2B202F80BA006E06E
S11341F05FF0000ADFF878B2D2B202F80BA0DFF861
S113420064A2D2B212F80AA0DFF864B2D2B212F8F1
S11342100BB01BEB0A0A5FF0020B9AFBFBFADFF808
S11342205CB2D2B202F80BA0521C22E5BDE8FF8FAB
S11342302DE9F84304000F0090461D00089E03205A
S113424094FBF0F100FB1140002801D1FDF7EEF9D9
S11342505FF00009B9F1320F43DA01200090D9F17F
S11342603F03DBB286487F4919F80110085CD0F19E
S11342707F02D2B2D9F13F01C9B20020FDF730FA72
S113428001200090D9F13F03DBB27F22D9F13F0135
S1134290C9B27B48DFF8D8C119F80CC01CF800007B
S11342A0D0F17F00C0B2FDF71BFA0122D9F13F0122
S11342B0C9B273486B4B19F80330185C704BDFF8C4
S11342C0B0C119F80CC01CF803301818022390FB75
S11342D0F3F0D0F17F00C0B2FDF7C2F919F1010982
S11342E0B8E7012000900D237F220D210020FDF767
S11342F0F7F9002F00D57F420A2097FBF0F00A213E
S113430090FBF1F201FB120030308DF800000A201E
S113431097FBF0F100FB117030308DF801000020A4
S11343208DF8020000208DF80300012348A200212B
S11343300020FDF75EFA012300AA00210C20FDF7FE
S113434058FAB8F1000F01D5D8F100080A2098FBFB
S1134350F0F00A2190FBF1F201FB120030308DF8ED
S113436000000A2098FBF0F100FB118030308DF83A
S1134370010000208DF8020000208DF803000123C5
S113438034A200211A20FDF734FA012300AA0021E7
S11343902C20FDF72EFA642095FBF0F030308DF8D8
S11343A000000A2095FBF0F00A2190FBF1F201FBDA
S11343B0120030308DF801000A2095FBF0F100FB6B
S11343C0115030308DF8020000208DF803000123D5
S11343D021A200213A20FDF70CFA012300AA0021B2
S11343E04620FDF706FA4FF47A7096FBF0F0303071
S11343F08DF80000642096FBF0F00A2190FBF1F2A6
S113440001FB120030308DF801000A2096FBF0F019
S11344100A2190FBF1F201FB120030308DF802000A
S11344200A2096FBF0F100FB116030308DF8030098
S113443001230AA200215A20FDF7DBF9012300AA77
S113444000216620FDF7D5F9FDF7C2F8BDE8F18338
S1134450453D000050453D00533D0000463D0000F1
S11344600842FF1FCC40FF1F3C42FF1FC85E0000F4
S11344700041FF1F4042FF1F3842FF1F3441FF1F0E
S11344800000FF1FFF2212EAD05C1DBF12EAD153C5
S1134490944593422BE09C44D30780EA01021A40DE
S11344A043EA002043EA0121A1FB0030410038BF68
S11344B040007CF17F010BDBFE294ADA5B0842EA0B
S11344C0C15153EA006373F1004C51EB1020704763
S11344D0D1F1080CDCF120012FDB5B0810FA01F1AB
S11344E00B4373F1004120FA0CF05041704794459E
S11344F01CBF02EAD153934280EA010202F0004257
S11345001DD0400019D0490017D05BB9634514D0C1
S11345100902B1FA81F39940BCEB030CC00140F0ED
S11345200040C1E70002B0FA80FC10FA0CF0B3EBD3
S11345300C0CC90141F00041B6E71000704740007F
S11345400AD0490008D010F1807F94BF11F1807F18
S113455002E042F0FF407047D043704710B5FF239C
S113456013EAD0541DBF13EAD1529C429A4239E057
S1134570A41ADA0780EA0103134042EA012142EA5D
S11345800020421A3CBF641E01EB4202090AB2FB3E
S1134590F1FE01FB1E221202B2FBF1F001FB10221C
S11345A06EF30F201202B2FBF1FE4EEA00207F34BC
S11345B006DDFE2C24DA53EA500050EBC45010BD43
S11345C0D4F1020401FB1E2240F08071192C1DDC81
S11345D021FA04F0C4F12004A140114371F1004216
S11345E0584110BD9C421ABF03EAD1529A420FE0CF
S11345F080EA010E0EF00043400004D0490016D1B9
S113460043F0FF4010BD490008BFD343180010BD5C
S11346109C4205D1D21AF7D001F00041484010BDA8
S11346204A0212BF0846484000F0004010BD4AB993
S11346300902B1FA81F2914044B1A418C00140F0DA
S113464000409EE7C90141F0004152420002B0FA25
S113465080F4A040141B94E74FF0807C1CEB400FC7
S113466094BF1CEB410F05E040EA010C5FEA4C0CDF
S113467001D28842704718BF8142704790EA010F07
S113468044BF81F00041FFF7EFB800BF421A3CBFBE
S1134690801A89184FF0004CC0F3C752FF2A24D067
S11346A0C1F3C75313B3D21AD2F1190327DD4CEA6D
S11346B001214CFA03F321EA0303D140C20D4CEA71
S11346C00020401834BF20EA0C004CEA5000D20508
S11346D053EA006373EB0C0C52EB1020420012F10E
S11346E0807F38BF7047C00DC0057047490212BFB4
S11346F09A4200EB5120F8E7D2F11703D9D570475D
S11347005FF0FF0C1CEAD05114BF614506E0C110F4
S1134710400721F0E04101F16051704779B900F0A0
S1134720004100020AD0B0FA80FC00FA0CF001F15A
S11347306051A1EB0C5101EBD021400570474102BF
S11347400CBF40F4E0016FF000010020704700004E
S1134750B0B581EA030C0CF0004C40F2FF7515EA89
S113476011541DBF15EA1357AC42AF4239E0E419A6
S113477023EA455343F48013C90241F0004141EA5E
S1134780505EC7021100A7FB020200284FF0000090
S1134790EEFB01204FF00001E3FB072118BF42F0BC
S11347A00102401800214941E3FB0E01A4F5806495
S11347B00F0302D252004041494154F101046CDD1F
S11347C0470872F1004250F1000051EB0451A1F589
S11347D080115CBF41EA0C01B0BD4CEA05510020D8
S11347E0B0BD05EA1357AC4214BFAF4241E050EAF2
S11347F0410E1CBF52EA430E02E061460020B0BDE8
S113480024423C441BD15FEA070EF6D0090302BFE1
S113481001460020AEF1140EB1FA81F7AEEB0704A5
S113482001FA07FE0C37C7F1200100FA07F7C84068
S11348304EEA000E23EA455343F48013A2E733F013
S11348400043B3FA83F704BFB2FA82FE77440B3F06
S1134850E41BB7F1200E2FBF02FA0EF3BB40C7F1E1
S1134860200E22FA0EFE38BF43EA0E03BA40641C3F
S113487082E750EA410E14BF52EA430E6FF0000182
S11348804FF4001717EB430F8ABF194617EB410F7C
S1134890B5E74CEA05510020B0BDD4F10104B4F1F0
S11348A020070FDAC4F12007520828BF42F00102A2
S11348B010FA07F501FA07F7E1BF2A43E04038434D
S11348C0E1400FE0352C98DCC7F1200452EA4002A5
S11348D020FA07F218BF42F0010231FA07F0A140B2
S11348E00A43002172F1004250F1000051EB0C0127
S11348F0B0BD0000010040F10780F446404200F0E2
S113490003F851F00041604709D0B0FA80F18840C3
S1134910C91CC1F58461090501EBD021400570472C
S1134920F0B540F2FF7581EA030C0CF0004C15EA77
S113493011541DBF15EA1357AC42AF42E5E0BC4128
S1134940C1F31301C3F31303801A994143F4801391
S113495004D2641E4000494180185941C90241EA09
S11349605051B1FBF3F603FB1611A2FB0675D7EB0E
S1134970C020A94102D2761E80185941C90241EAD9
S11349805051B1FBF3FE03FB1E11A2FB0E75D7EBD6
S1134990C020A94103D2AEF1010E80185941890209
S11349A041EA9051760546EA8E2EB1FBF3F603FBFD
S11349B01611A2FB0675D7EB8020A94102D2761E00
S11349C080185941C90241EA50514EEA060EB1FB22
S11349D0F3F603FB1611A2FB0675D7EBC020A94121
S11349E002D2761E80185941C90241EA5051B1FBE6
S11349F0F3F703FB1711A2FB0735D3EBC020A94142
S1134A0067F100070CBF004247F0010766F3D527A2
S1134A104FEA1E31B80814F5806412DDBD0775F144
S1134A20004250EB0E5051EB045111F5801F5CBF56
S1134A3041EA0C01F0BD4CF07F6141F0E0410020FF
S1134A40F0BDBD076D0840EA0E5041F48011D4F169
S1134A500104B4F120060ADAC4F120060200E040A1
S1134A6001FA06F3E1401843B24015430EE0342C3A
S1134A7013DCC6F1200445EA40056D0820FA06F26D
S1134A80154321FA06F0A1400D43002175F10042BF
S1134A9050F1000051EB0C01F0BD00205FEA0C0165
S1134AA0F0BDCFB992185B41B3FA83F704BFB2FAF1
S1134AB082F6BF190B3FB7F120062FBF02FA06F3A7
S1134AC0BB40C7F1200622FA06F638BF3343BA408A
S1134AD01CB1E419641E33E77F4231F00041B1FA9E
S1134AE081F404BFB0FA80F6A4190B3CB4F120069B
S1134AF02FBF00FA06F1A140C4F1200620FA06F601
S1134B0038BF3143A0403C1B1AE7AC421ABF05EA48
S1134B101357AF4212E050EA41061CBF52EA430663
S1134B20BFE750EA4107304661461CBF41EA0551E0
S1134B30F0BD52EA430C08BFC143F0BD00204FF45E
S1134B40001616EB410F98BF16EB430F08BF16EB88
S1134B50410F24BFC14305E016EB430F0CBF614670
S1134B604CEA0551F0BD0000F446400D40EAC12076
S1134B70490006D200F00EF8004248BF6FF0004032
S1134B80604700F007F84FF0004188428CBF0846A8
S1134B904042604740F00040490DA1F58061491C46
S1134BA005D4D1F11F0154BFC840C01770474FF05E
S1134BB000007047002200F097BB00004CF2205028
S1134BC0824908804DF62810804908804FF4E97026
S1134BD07F4908805FF0FF307E49086000207E49ED
S1134BE008707E480068400840007C490860242022
S1134BF07B4908709A207B4908707B48007810F044
S1134C001F0079490870032078490870002078490A
S1134C100870784800788007FBD576480078C0068D
S1134C20FBD474480078C0B210F00C000828F8D106
S1134C3005206E49087058206D4908706E48654912
S1134C4008606C4800788006FBD56A480078400606
S1134C50FBD51A206349087066480078C0B210F08A
S1134C600C000C28F8D1634800784006FBD5704747
S1134C7010B45C4A1278C0231A4270D15C4A12788C
S1134C80520658D4574A127852071AD45B4A1278FB
S1134C90D20702D45A4A100002E04FF40042100036
S1134CA00122504B1B78C3F3C2039A401100C9B2CE
S1134CB0B0FBF1F04A4A127830231A4204D040097A
S1134CC002E04FF400421000474A1278D2B212F0C8
S1134CD0E002002A0ED0202A10D0402A12D0602AE6
S1134CE014D0802A16D0A02A18D0C02A1AD0E02ABC
S1134CF01CD01FE04FF4207250435DE04FF4A062DB
S1134D00504359E04FF4F062504355E04FF42062B1
S1134D10504351E04FF4377250434DE04FF4B762C3
S1134D20504349E040F69502504345E040F6713265
S1134D30504341E040E02D4A127812F01F02521C09
S1134D4011002F4AC9B2B2FBF1F21000284A1278BE
S1134D5012F01F0218321100C9B248432CE0214A54
S1134D601278D2B212F0C002402A12D11C4A127830
S1134D70D20703D44FF4004210001DE0214A01235E
S1134D80214C2478C4F34204A340B2FBF3F2100094
S1134D9012E0144A1278D2B212F0C002802A0AD168
S1134DA0164A1278D20702D4154A100004E04FF4D0
S1134DB00042100000E007E0064A1268120F521C7D
S1134DC0B0FBF2F2114B1A6010BC70470E20054084
S1134DD00020054044800440005006400480044004
S1134DE0014006400040064003400640044006409F
S1134DF00540064006400640000017010C400640EE
S1134E000024F40000093D00084006402001FF1F73
S1134E10002200F099BA000010B40100DFF85C220F
S1134E20126852F00202DFF854321A60DFF84C22A2
S1134E30126852F00202DFF844321A60DFF84022AE
S1134E40126852F00202DFF838321A600A78100051
S1134E50DFF830221268012383409A43DFF82432BA
S1134E601A604A7812F03F02DFF81C321B68C0B2A5
S1134E70C2548A79002A02D0012A0DD019E0DFF841
S1134E8008221268C0B2825C12F0BF02DFF8F83167
S1134E901B68C0B2C2540CE0DFF8EC211268C0B247
S1134EA0825C52F04002DFF8E0311B68C0B2C254A9
S1134EB0FFE70022C0B2430103F1804313F510431E
S1134EC0DA800022C0B2430103F1804313F510439A
S1134ED09A834A88C0B2430103F1804313F5104317
S1134EE09A608A885204520CC0B2430103F1804391
S1134EF013F51043DA828A885204520CC0B243017B
S1134F0003F1804313F51043DA83CA68DFF87C3178
S1134F10C0B24401E2508A68C0B2430103F1804345
S1134F2013F510439A80C0B2420102F1804212F597
S1134F301042D2880B7C1B0213F4E0631A43C0B204
S1134F40430103F1804313F51043DA80C0B24201F8
S1134F5002F1804212F51042D2880B7E52EAC3223B
S1134F60C0B2430103F1804313F51043DA804A6968
S1134F70C0B2430103F1804313F51043DA600A6AB7
S1134F80C0B2430103F1804313F510431A61CA69A7
S1134F90C0B2430103F1804313F510439A82C0B2B7
S1134FA0420102F1804212F51042D28891F8243075
S1134FB013F007031A43C0B2430103F1804313F50E
S1134FC01043DA80C0B2420102F1804212F510426D
S1134FD0D28891F82C30DB0013F0F8031A43C0B2E6
S1134FE0430103F1804313F51043DA808A6AC0B2A7
S1134FF0430103F1804313F510439A61C0B24201A7
S113500002F1804212F51042928B52F00802C0B2B3
S1135010430103F1804313F510439A831A4A12683B
S1135020C0B2825C52F08002174B1B68C0B2C254FB
S1135030C0B210BC704710F00F01154A11707047D0
S113504010F00F01134A11707047C0B2420102F10F
S1135050804212F510421161704710B5040014F03B
S11350600F000E4908700C4850F82400002803D0A3
S1135070094850F82400804710BD00003C800440DB
S1135080408004400C800040FC6000000090004020
S11350901B8000401A8000408C40FF1F1F8000408E
S11350A080B50020FFF7D9FF01BD80B50120FFF7CF
S11350B0D4FF01BD80B50220FFF7CFFF01BD80B54D
S11350C00320FFF7CAFF01BD80B50420FFF7C5FF29
S11350D001BD80B50520FFF7C0FF01BD80B50620E6
S11350E0FFF7BBFF01BD80B50720FFF7B6FF01BD89
S11350F080B50820FFF7B1FF01BD80B50920FFF797
S1135100ACFF01BD80B50A20FFF7A7FF01BD80B544
S11351100B20FFF7A2FF01BD80B50C20FFF79DFF18
S113512001BD80B50D20FFF798FF01BD80B50E20AD
S1135130FFF793FF01BD80B50F20FFF78EFF01BD80
S113514038B504000D0000F01FF8002801D100203C
S113515019E0422000F090F800F061F8002803D133
S113516000F047F800200EE02000C0B200F084F800
S113517000F055F82800C0B200F07EF800F04FF8B7
S113518000F037F8012032BD80B501204F49086096
S113519001204F49086041F2883000F09FF8002058
S11351A04C4908604C480068002804D10120494952
S11351B0086000201CE001204649086000204349A3
S11351C0086041F2883000F089F800204149086005
S11351D041480068002804D001203E4908600020AE
S11351E006E001203B49086000203849086001209E
S11351F002BD80B5002036490860002033490860AC
S113520041F2883000F06AF8012031490860012039
S11352102E49086041F2883000F060F801BD80B585
S113522000202B49086041F2883000F057F8012033
S11352302649086041F2883000F050F801202449E2
S1135240086000202349086041F2883000F046F8E5
S113525021480068002807D001201E49086000206A
S11352601B490860002006E001201A49086000205C
S113527017490860012002BD38B50400082528003C
S1135280451EC0B200281CD000201149086041F21C
S1135290883000F023F8200603D501200B4908606C
S11352A002E0002009490860640041F2883000F0FF
S11352B015F801200649086041F2883000F00EF824
S11352C0DDE700200249086031BD00000C10FE43F8
S11352D00010FE438C12FE430C12FE4380B20028E1
S11352E001D0401EFAE77047401810F0030308D0BD
S11352F0C91A1FD3DB0748BF00F8012D28BF20F8C7
S1135300022D130030B414461546103928BF20E985
S11353103C00FAD8490728BF20E90C0048BF40F8F0
S1135320042D890028BF20F8022D48BF00F8012D64
S113533030BC7047C91818BF00F8012DCB0728BF2F
S113534000F8012D7047000000B500BF1300964619
S11353509446103928BFA0E80C50FAD85FEA417C83
S113536028BF0CC048BF40F8042BC90728BF20F849
S1135370022B48BF00F8012B00BD00000000000014
S11353800000000000000000000000000000000019
S113539000001FCC000C000000000000000008000A
S11353A0300060000800300060000000022003FCB0
S11353B01E20022003FC1E200220000000000E1804
S11353C011043FFF10840C78000000000F001084CB
S11353D00F3800C0077818840078000000780F8424
S11353E010C411240E9800E400840008080068002A
S11353F07000000000000000000000000000000039
S1135400000007E0181820044002000000004002D9
S11354102004181807E000000000000002400240C9
S113542001800FF0018002400240000000800080F3
S113543000800FF800800080008000000001000D53
S1135440000E0000000000000000000000000080CA
S11354500080008000800080008000800000000C3C
S1135460000C000000000000000000000000000626
S1135470001800600180060018002000000007F0FA
S1135480080810041004080807F0000000000804CD
S113549008041FFC000400040000000000000E0CBF
S11354A010141024104411840E0C000000000C1879
S11354B010041104110412880C700000000000E0B4
S11354C00320042408241FFC0024000000001F986B
S11354D0108411041104108810700000000007F0FB
S11354E008881104110418880070000000001C00D2
S11354F0100010FC13001C001000000000000E3807
S113550011441084108411440E3800000000070078
S1135510088C10441044088807F0000000000000C4
S11355200000030C030C0000000000000000000059
S113553000010106000000000000000000000080DF
S11355400140022004100808100400000220022078
S11355500220022002200220022000000000100489
S113556008080410022001400080000000000E0022
S11355701200100C106C10800F00000003E00C18D7
S113558013E4142417C4082807D000000004003CC6
S113559003C41C40074000E4001C000410041FFC6A
S11355A01104110411040E880070000003E00C18AB
S11355B010041004100410081C10000010041FFC38
S11355C0100410041004080807F0000010041FFC65
S11355D01104110417C410040818000010041FFC5F
S11355E01104110017C010000800000003E00C189B
S11355F01004100410441C780040000010041FFC28
S113560010840080008010841FFC1004000010042B
S113561010041FFC1004100400000000000300012B
S1135620100110011FFE10001000000010041FFCE8
S1135630110403801464181C1004000010041FFCDF
S11356401004000400040004000C000010041FFCFB
S11356501F0000FC1F001FFC1004000010041FFCAE
S11356600C04030000E010181FFC100007F00808E9
S1135670100410041004080807F0000010041FFCB4
S113568010841080108010800F00000007F00818AC
S113569010241024101C080A07F2000010041FFC38
S11356A01104110011C011300E0C000400000E1C76
S11356B011041084108410441C38000018001000D9
S11356C010041FFC100410001800000010001FF844
S11356D010040004000410041FF8100010001E0041
S11356E011E0001C007013801C0010001FC0103C4F
S11356F000E01F0000E0103C1FC000001004180C64
S1135700163401C001C01634180C100410001C001B
S1135710130400FC13041C00100000000804101CF7
S11357201064108413041C0410180000000000000E
S113573000007FFE400240024002000000003000F2
S11357400C0003800060001C000300000000400205
S1135750400240027FFE0000000000000000000044
S11357602000400040004000200000000001000133
S113577000010001000100010001000100004000DF
S1135780400020000000000000000000000000981D
S1135790012401440144014400FC000410001FFCE6
S11357A000880104010400880070000000000070FB
S11357B00088010401040104008800000000007056
S11357C000880104010411081FFC0004000000F813
S11357D0014401440144014400C8000000000104E4
S11357E001040FFC1104110411001800000000D67C
S11357F001290129012901C90106000010041FFC27
S1135800008401000100010400FC00040000010404
S1135810190419FC00040004000000000000000347
S113582000010101190119FE0000000010041FFC11
S11358300024004001B4010C010400000000100425
S113584010041FFC0004000400000000010401FC1B
S11358500104010001FC0104010000FC010401FC3D
S1135860008401000100010400FC0004000000F8B1
S1135870010401040104010400F80000010101FF16
S1135880008501040104008800700000000000701D
S1135890008801040104010501FF00010104010461
S11358A001FC00840104010001800000000000CC20
S11358B001240124012401240198000000000100B6
S11358C0010007F80104010400000000010001F8D0
S11358D0000400040004010801FC0004010001802C
S11358E00170000C001001600180010001F0010C46
S11358F0003001C00030010C01F00100000001047F
S1135900018C00740170018C01040000010101810B
S11359100171000E00180160018001000000018483
S1135920010C013401440184010C0000000000005A
S11359300000000001003EFC4002400200000000A4
S113594000000000FFFF0000000000000000400213
S113595040023EFC01000000000000000000600066
S11359608000800040004000200020000000000073
S11359700000000000000000000000003F400000A4
S11359800000000000003000400030004000000033
S113599009000BC03D000BC03D00090018C02440A5
S11359A07FE0224031800000180024C01B000D80DD
S11359B03240018003801C4027401C800740004087
S11359C01000600000000000000000000000000063
S11359D000001F80204040200000402020401F8005
S11359E000000000090006001F80060009000000F6
S11359F0040004003F800400040000000010006064
S1135A000000000000000000040004000400040082
S1135A10040000000000004000000000000000003E
S1135A20002001C006003800400000001F80204014
S1135A30204020401F800000000010403FC0004074
S1135A400000000018C021402240244018400000FB
S1135A5010802040244024401B80000002000D00E0
S1135A6011003FC0014000003C80244024402440F9
S1135A70238000001F802440244034400380000021
S1135A803000200027C03800200000001B80244084
S1135A90244024401B8000001C0022C022402240DD
S1135AA01F8000000000000008400000000000000B
S1135AB0000000000460000000000000000004007A
S1135AC00A00110020804040090009000900090073
S1135AD00900000000004040208011000A0004007A
S1135AE01800200023402400180000001F802040DC
S1135AF0274029401F400000004007C039000F0024
S1135B0001C0004020403FC0244024401B800000CE
S1135B101F802040204020403080000020403FC0B3
S1135B20204020401F80000020403FC024402E40E1
S1135B3030C0000020403FC024402E003000000050
S1135B400F001080204022403380020020403FC0DC
S1135B50040004003FC02040204020403FC02040BB
S1135B60204000000060202020203FC020002000B2
S1135B7020403FC024400B0030C0204020403FC0A4
S1135B8020400040004000C03FC03C0003C03C0037
S1135B903FC0000020403FC00C4023003FC0200015
S1135BA01F802040204020401F80000020403FC034
S1135BB024402400180000001F802140214020E0E0
S1135BC01FA0000020403FC02440260019C0004010
S1135BD018C024402440224031800000300020407E
S1135BE03FC020403000000020003F8000400040C3
S1135BF03F80200020003E0001C007003800200044
S1135C00380007C03C0007C038000000204039C0FD
S1135C10060039C0204000002000384007C038404A
S1135C2020000000304021C02640384020C0000041
S1135C30000000007FE040204020000000007000D1
S1135C400C000380004000000000402040207FE062
S1135C5000000000000020004000200000000000C0
S1135C6000100010001000100010001000000000D0
S1135C7040000000000000000000028005400540D4
S1135C8003C0004020003FC00440044003800000E3
S1135C90000003800440044006400000000003802C
S1135CA0044024403FC000400000038005400540FC
S1135CB003400000000004401FC024402440200092
S1135CC0000002E0055005500650042020403FC06B
S1135CD00440040003C000400000044027C000400A
S1135CE00000000000100010041027E00000000075
S1135CF020403FC00140070004C004402040204031
S1135D003FC000400040000007C0040007C004007A
S1135D1003C00000044007C00440040003C0004066
S1135D20000003800440044003800000041007F0D6
S1135D300450044003800000000003800440045029
S1135D4007F00010044007C00240040004000000F3
S1135D50000006400540054004C0000000000400A7
S1135D601F800440004000000400078000400440FD
S1135D7007C000400400070004C0018006000400BE
S1135D80060001C0070001C006000000044006C070
S1135D90010006C0044000000410071004E0018064
S1135DA0060004000000044005C006400440000052
S1135DB00000000004007BE0402000000000000020
S1135DC00000FFF000000000000040207BE0040021
S1135DD0000000004000800040002000200040003F
S1135DE010B50400200614D51F480088022190FB3A
S1135DF0F1F202FB1102012A06D11B480088642833
S1135E0002DA0020FFF717F917480088401C1649EA
S1135E100880600627D500201349088013480068CD
S1135E20142805D211480068401C104908601AE083
S1135E300F480088D0F101000D4908800C48008803
S1135E40002801D00B4900E00B490020FFF7FDF8C2
S1135E5007480088002803D007480849086002E082
S1135E6004480649086010BD4642FF1F3442FF1F24
S1135E704442FF1F2C01FF1FDC1EFF1F3842FF1F7F
S1135E80348004400004000000000000348004401A
S1135E9000080000000000003480044000100000EE
S1135EA000000000348004400020000000000000D6
S1135EB02880044000040000000000002880044002
S1135EC00008000000000000282828282828282886
